:1000000000000120812A00007F2A00007F2A0000D2
:100010007F2A00007F2A00007F2A000000000000E5
:10002000000000000000000000000000993B0000FC
:100030007F2A0000000000002D3B0000253B00004F
:100040007F2A00007F2A00007F2A00007F2A00000C
:100050007F2A00007F2A00007F2A00007F2A0000FC
:100060007F2A00007F2A00007F2A00007F2A0000EC
:100070007F2A00007F2A00007F2A00007F2A0000DC
:100080000D390000293900004539000061390000B0
:100090007D3900009D390000BD390000DD390000C8
:1000A000891B00007F2A00007F2A00007F2A0000B1
:1000B0007F2A00007F2A00007F2A00007F2A00009C
:1000C0007F2A00007F2A00007F2A0000E92100002B
:1000D0000D2200003122000055220000792200008C
:1000E000A12200000348044B834202D0034B03B11A
:1000F00018477047B4000020B40000200000000042
:100100000548064B1B1AD90F01EBA301491002D079
:10011000034B03B118477047B4000020B40000201F
:100120000000000010B5064C237843B9FFF7DAFF52
:10013000044B13B10448AFF300800123237010BDBA
:100140004208002000000000F427010008B5054B1C
:100150001BB105490548AFF30080BDE80840FFF733
:10016000CFBF00BF0000000024080020F4270100DA
:100170007047000008B50121014805F0FBFD08BDEE
:10018000747B000008B50221014805F0F3FD08BDAD
:10019000747B000000B583B0084805F0EBFD01A9B1
:1001A000074805F0F9FD0199064B1960064B1960E7
:1001B000064805F0DFFD03B05DF804FBC07A0000DF
:1001C000E47A0000200000201C000020EC7A0000EF
:1001D00000B583B0124805F0CDFD124805F0CAFD08
:1001E000114805F0C7FD01A9104805F0D5FD06E04E
:1001F0000F4805F0BFFD01A90C4805F0CDFD0199A0
:100200004B1E012BF4D80B4805F0B4FD0A4B0F220E
:100210001A600A4B0A221A6003B05DF804FB00BFA3
:10022000047B0000287B0000387B0000E47A00009B
:10023000487B0000EC7A0000040000200C00002045
:1002400010B5144B1C68144B1B6823448B4220DBF5
:10025000124B1B68984202DC81188B4205DD1C445E
:10026000A04216DC1044844213DC0D4A1368643348
:10027000136005F0B1FB0B4A82FB0032C317C3EBDE
:100280006213642202FB1303034A00211160034A34
:10029000136010BD18000020200800201C0800205A
:1002A0003C0800201F85EB512DE9F04107460D4623
:1002B00016461C46134805F05DFD2146124805F020
:1002C00059FDA4EB0608A84502DC3444AC4205DA2B
:1002D0000E4A136864331360BDE8F08102210C48B4
:1002E00005F048FDB845F3DCBC42F1DB03210848CA
:1002F00005F040FD074A136801331360064B0122E5
:100300001A70E9E7687B0000787B00003C08002059
:10031000EC7A000014080020080000202DE9F04FBE
:10032000ADF6CC0D26234FF4E13272490DF50B608A
:1003300002F0E0FC704E01220DF50B61304603F037
:10034000BFFA63216D4805F015FD6D4DCDF8A85835
:100350000F218DF8AC18CDF8A05809248DF8A448C9
:100360002B681B680222284698472B681B680222CC
:10037000214628469847634DCDF8985840F206210B
:10038000ADF89C182B681B684FF48172284698477B
:10039000CDF890584FF4A063ADF894384AF280033A
:1003A000009301230DF5096257490DF6440002F050
:1003B000A5F856490DF6440002F07AFACDF83C58FB
:1003C00040F20151ADF840182B681B6811222846F5
:1003D0009847CDF8345840F20531ADF838182B68FD
:1003E0001B68112228469847CDF82C584FF480718D
:1003F000ADF830182B681B68022228469847CDF8C4
:10040000245840F20753ADF82838CDF81C5840F274
:100410000733ADF82038002501953D4B00930DF6CC
:100420001C030DF624020DF644010DF5E06000F00A
:1004300017FF01220DF50B61304603F033FA01225C
:100440000DF50B61304603F03BFA01220DF50B610F
:10045000304603F043FA0DF5E0610DF2B46003F0AD
:1004600085FD29460DF5E06001F054F98023ADF8D3
:10047000AE36ADF8AC36274BCDF8A83610238DF844
:10048000B03602238DF8B13621460DF5AD630AE092
:1004900000221A815A819A81DA811A825A829A82BA
:1004A000DA82013920330029F2DA09210DF585635A
:1004B0000AE000221A815A819A81DA811A825A82CC
:1004C0009A82DA82013920330029F2DA0921BAABA3
:1004D0000AE000221A815A819A81DA811A825A82AC
:1004E0009A82DA82013920330029F2DA09216AABD3
:1004F0001DE000BF00100040AC060020747B00002F
:10050000F80500208C0100200020004000366E011C
:10051000A8050020107C000000221A815A819A81CF
:10052000DA811A825A829A82DA82013920330029CA
:10053000F2DA78260196009600231A4659A90DF2A0
:10054000B46004F081FCC64B00930A230DF5AD6244
:1005500059A90DF2B46004F025FCC24B4293282344
:1005600003936E2402940A2501950095002341AA65
:1005700059A90DF2B46004F0FDFF502303930294D7
:1005800032270197009501233AAA59A90DF2B460C8
:1005900004F0F0FF76238DF8E7300DF1E703002239
:1005A00059A90DF2B46005F05FF80D2005F030F99F
:1005B0000346AD4C07CC186059609A6022781A73D4
:1005C000002259A90DF2B46005F04EF8DFF8BC82A4
:1005D0004346002259A90DF2B46005F065F80B20DE
:1005E00005F016F90346A14A03CA1860596011883C
:1005F000927819819A72012259A90DF2B46005F01E
:1006000033F84346012259A90DF2B46005F04CF8C5
:10061000092005F0FDF80246954B03CB10605160B0
:100620001B78137259A90DF2B46004F0EFFC914AE3
:1006300059A90DF2B46004F0DBFC6FF07F4259A9B8
:100640000DF2B46004F0C6FC424659A90DF2B46044
:1006500004F0EAFC102005F0DBF80446DFF830C2B5
:10066000BCE80F0020606160A260E3600196009624
:1006700000231A4628A90DF2B46004F0E5FB7E4B76
:1006800000932B46BAAA28A90DF2B46004F08AFBA5
:10069000224628A90DF2B46004F0B8FC4FF47F02A2
:1006A00028A90DF2B46004F0A3FC6FF07F4228A9E2
:1006B0000DF2B46004F08EFC324628A90DF2B4604D
:1006C00004F0CEFC424628A90DF2B46004F0ACFC64
:1006D0004FF47F410DF2B46003F06AFF41460DF222
:1006E000B46003F071FC4FF47F410DF2B46003F08D
:1006F0005FFF41460DF2B46003F066FC0DF2B4609A
:1007000004F0FEFD5D490DF5E06001F003F85C4B7F
:1007100000932B460DF5856248A90DF2B46004F0F4
:1007200041FB7E230193462300936A233A4648A95E
:100730000DF2B46004F088FB524A48A90DF2B4608F
:1007400004F03AFC48A90DF2B46004F06FFB0022FB
:1007500048A90DF2B46004F083FC48A90DF2B4601E
:1007600004F08EFC044648A90DF2B46004F092FC3B
:10077000054648A90DF2B46004F096FC064648A967
:100780000DF2B46004F09AFC039002960195009477
:10079000002326AA48A90DF2B46004F0A5FF3A4B45
:1007A000239302238DF8953048A90DF2B46004F02C
:1007B0007BFC84B248A90DF2B46004F061FC83B202
:1007C000E41AADF8904048A90DF2B46004F076FC4C
:1007D00084B248A90DF2B46004F05CFC83B2E41A60
:1007E000ADF8924010238DF8943023AB002248A935
:1007F0000DF2B46004F0D0FF002248A90DF2B460FD
:1008000004F0AEFF4FF00009CA464FF001084E4613
:10081000E2E048A90DF2B46004F008FBDFE0C82074
:1008200002F0D2FD28A90DF2B46004F0FFFAC8204E
:1008300002F0CAFD0DF2B46004F062FDFFF7AAFCFD
:1008400028A90DF2B46004F023FE59A90DF2B4609A
:1008500004F01EFE0DF2B46004F052FDD8E000BFBB
:100860007501000000FFFF00D87B0000E87B00005E
:10087000F47B00008F8FBC0071010000B482460041
:1008800085010000FFFFF00010FC0000E0110100F6
:10089000007C000028A90DF2B46004F0F9FDB74C0B
:1008A00023689B680F2120469847054623689B686C
:1008B000092120469847B5F5167F40F3D980B04B03
:1008C0001C68B0F5C87F80F2F080002E40F0D9801F
:1008D00048A90DF2B46004F0D3FBA4B214FA80F579
:1008E000ADB248A90DF2B46004F0D4FB074648A9A4
:1008F0000DF2B46004F0D8FB14FA80F4A4B248A955
:100900000DF2B46004F0DAFB019024B200943B468F
:100910002AB248A90DF2B46004F096FAB8F1000FBB
:1009200040F0DE80974803685B6840F201519847C9
:10093000044668B9934803689B6801224FF48071AC
:10094000984759A90DF2B46004F070FAA046012648
:100950008C4803685B6840F205319847044670B9DB
:10096000884803689B6800224FF48071984759A912
:100970000DF2B46004F08CFD26464FF00108824A67
:100980001368824909680B441360B8F1000F40F006
:10099000CD807D4B1B68772B00F3DF8048A90DF2DB
:1009A000B46004F06DFB044648A90DF2B46004F095
:1009B00071FB014614222046FFF742FC0DF2B460A1
:1009C00004F09EFC642002F0FFFC714B1A68714B2E
:1009D0001B689A4280F2EE80002E3FF41AAF6E4BF5
:1009E000B3F900306D4A01920093002211460DF2D6
:1009F000B46003F013FCBAF1000F09D046B16148AE
:100A000003685B6840F20151984700283FF407AF44
:100A1000B9F1000F3FF43EAF002E3FF43BAF594811
:100A200003685B6840F20151984700287FF432AFB9
:100A3000C82002F0C9FC28A90DF2B46004F0F6F950
:100A4000C82002F0C1FC0DF2B46004F059FCFFF7BD
:100A5000BFFB28A90DF2B46004F01AFD59A90DF2EC
:100A6000B46004F015FD0DF2B46004F049FC11E728
:100A7000B5F5C87F03DA424B1C68644221E70024C5
:100A80001FE74FF47F43012259A90DF2B46004F02F
:100A9000CBFD6FF07F43002259A90DF2B46004F042
:100AA000C3FDB1464FF0000A12E7B0F5167F7FF79D
:100AB0000FAF002E3FF40CAF4FF47F43002259A933
:100AC0000DF2B46004F0B0FD6FF07F43012259A92C
:100AD0000DF2B46004F0A8FDB2464FF00009F7E64D
:100AE000DFF8CCB0DBF80010274F3A682A4D288891
:100AF000431810442A4C019400B200901BB212B269
:100B000009B20DF2B46003F089FBDBF800103A681B
:100B1000288843181044019400B200901BB212B20E
:100B200009B20DF2B46003F07BFAFBE61D4C2268BB
:100B30001D490FA805F0F6F9012300930FAB002221
:100B400011460DF2B46003F0F1FC114A1368013351
:100B500013602368013323601BE704F03DFF134A51
:100B600082FB0032C317C3EB6213642202FB130340
:100B7000054A002111600E4A13600FE7F8050020B6
:100B8000200000208C01002020080020040000200C
:100B90001008002024000020180000208F8FBC00C7
:100BA0001E69D2003C0800208C7B00001F85EB51A1
:100BB0001C08002098490DF2B46003F0F9FC974935
:100BC0000DF2B46003F000FA00210DF2B46003F0FE
:100BD00005FA04F001FF924B83FB0023C417C4EB1A
:100BE0002314652303FB14040A34C1E024B2002754
:100BF00000970A23224621460DF2B46003F02CFA36
:100C000000970A23224621460DF2B46003F032FB1E
:100C1000844B1F7004F0E0FE814B83FB0023C4175C
:100C2000C4EB2314652303FB14040A34B2E0134617
:100C300000221A60E0E040F226239E4240F3DC806E
:100C4000794A13680A3313606E2B40F3D58013463C
:100C50006E221A60D0E0B5F5C87F08DA734A1368CF
:100C60000A3313607D2B02DD13467D221A60704823
:100C700003685B6840F20151984770B96C4803689B
:100C80009B6801224FF48071984723460A226749E6
:100C9000096865480068FFF707FB664B1A68664BF2
:100CA0001B689A4200F0D680614803685B6840F296
:100CB0000531984730B95E4803689B6800224FF4BD
:100CC0008071984725B25D4E00960A232A46294630
:100CD0000DF2B46003F0C0F900960A232A462946B3
:100CE0000DF2B46003F0C6FA4F4F39684F4DB5F9B5
:100CF000002001F10A034FF47F06019600921BB217
:100D000009B20DF2B46003F0B3F93968053109B2E4
:100D10002B885A1D053B01961BB200930B4612B25D
:100D20000DF2B46003F0A4F9642002F04DFB0DF263
:100D3000B46004F0E5FA3968B5F9002001F10A035E
:100D40000026019600921BB209B20DF2B46003F0C6
:100D50008FF93968053109B22B885A1D053B019678
:100D60001BB200930B4612B20DF2B46003F080F98F
:100D7000334D2B689B680F212846984706462B6801
:100D80009B680921284698470546264B1B78002B6F
:100D90007FF42CAF2B4F3A682B4905A805F0C2F819
:100DA0004FF00108CDF8008005AB002211460DF28E
:100DB000B46003F0BBFB254A1368434413603B68EF
:100DC00043443B601B4B1A6821490FA805F0AAF861
:100DD000CDF800800FAB002246210DF2B46003F085
:100DE000A5FBB6F5C87FBFF626AF0F4A13680A3BCE
:100DF0001360002BFFF61BAF40F226239D427FF7C6
:100E00002AAF0A4A13680A3B1360002BBFF62FAFC4
:100E1000134600221A602AE700FFFF00D0010100FC
:100E2000CBF08D28080000201400002010000020C6
:100E30008C010020140800200C000020D7EBFA00E1
:100E4000F80500203C080020987B000010080020D6
:100E5000A47B000000210DF5E06000F05BFC4FF486
:100E60007F010DF2B46003F0A3FB224F39460DF26F
:100E7000B46003F0A9F8204D2A68204919A805F0AC
:100E800051F80124009419AB002211460DF2B46010
:100E900003F04CFB1A4E31460DF2B46003F088FBB0
:100EA00039460DF2B46003F08FF82A68154919A885
:100EB00005F038F8009419AB1E2200210DF2B46041
:100EC00003F034FB31460DF2B46003F071FB0E49C0
:100ED0000DF2B46003F078F82A680C4919A805F0FF
:100EE00021F8009419AB322200210DF2B46003F016
:100EF0001DFBFEE7D80701003C080020B47B000082
:100F000000FFFF00C47B0000E8190100A07B000087
:100F1000FEE7406800F07F407047406870477047C8
:100F2000024A0260024A0260704700BF00FE0000F1
:100F3000D4FD000090F81431012B03D9D0F8103102
:100F400058887047D0F810311888704790F81431DD
:100F5000012B03D9D0F8103118887047D0F8103120
:100F600058887047014B0360704700BF2CFE00009B
:100F7000012800D070474FF6FF739942FAD1064B13
:100F800080221A805A8084229A80DA8002221A7281
:100F900001225A729A72EDE7A805002010B50446A6
:100FA000034B0360082104F01EFC204610BD00BF67
:100FB0002CFE000010B50446FFF7B2FF4FF48E710F
:100FC000204604F010FC204610BD000008B501F0DA
:100FD0007F43934218D07BB9B2F1807F0CD10B0ACA
:100FE00003F478434A0902F4FC621343C1F3C401D9
:100FF0000B4343F0807008BD044B054A1A60054B53
:1010000054221A60FFF784FF0846F4E7D00000205E
:1010100078FD0000EC0000202DE9F04385B0044687
:101020000D4616461F464FF080720D99FFF7CEFF12
:101030000C4B0293DFF83080CDF8088003902368D2
:1010400002AA0192BDF830200092D3F814903B46DA
:10105000324629462046C847CDF8088005B0BDE88D
:10106000F08300BFC0FD00002CFE000010B590F81A
:101070001431032B15D8DFE803F002272E41B2F814
:1010800000E0D0F810416388647A23449BB290F961
:1010900015C11FFA8CFCA3EB0C031EFA83F3013B72
:1010A00013801388D0F81041B4F802C0634502D30E
:1010B000A3EB0C0313800B88D0F8102152889342C5
:1010C00001D39B1A0B8010BD148890F9153114FAC6
:1010D00083F31380E5E7B1F800E0D0F810416388AE
:1010E000647A23449BB290F915C11FFA8CFCA3EBE0
:1010F0000C031EFA83F3013B0B80D2E70C8890F9B6
:10110000153114FA83F30B80CBE700B583B08DF86B
:101110000710D0F8040103685B6801220DF1070194
:10112000984703B05DF804FB10B50346D0F80401FE
:10113000026854688AB2191DA04710BD30B585B049
:1011400004468DF80710D0F80C31186802689568CD
:1011500000229988A847D4F8040103681D68012378
:101160000DF10F020DF10701A847D4F80C311868F2
:101170000268946801229988A04705B030BD70B517
:1011800004460D4680F81411D0F81031997AC90040
:1011900001F00806D0F8180110B103681B689847E1
:1011A00036212046FFF7CAFF032D08D8DFE805F0F7
:1011B000020E131946F0C0012046FFF7A6FFD4F82F
:1011C000180110B103685B68984770BD314620462E
:1011D000FFF79BFFF3E746F0A0012046FFF795FFDE
:1011E000EDE746F060012046FFF78FFFE7E710B517
:1011F000044690F815311944CBB249B280F8151164
:10120000002908DBD0F810215288914209DB9B1A93
:1012100080F8153105E0D0F810215288134480F889
:101220001531D4F8180110B103681B6898473721AD
:101230002046FFF783FF00212046FFF766FFD4F822
:101240001031597A94F815311944C9B22046FFF784
:101250005CFFD4F8180110B103685B68984710BDB3
:1012600038B504461546434A0260434A0260C0F856
:101270000411C0F80851C0F80C31049BC0F81031BB
:10128000059BC0F81831286803681B684FF4817209
:10129000A9889847D4F80C311868026815684FF48B
:1012A00081729988A847D4F808311868026895684F
:1012B00000229988A8470A2002F086F8D4F808315D
:1012C00018680268956801229988A8474FF49670BB
:1012D00002F07AF811212046FFF730FF962002F045
:1012E00073F826212046FFF729FF03212046FFF748
:1012F0000CFF3A212046FFF721FF05212046FFF78A
:1013000004FF33212046FFF719FF00212046FFF795
:10131000FCFED4F81031597A2046FFF7F6FE002182
:101320002046FFF7F2FED4F8103199782046FFF7F7
:10133000ECFE00212046FFF7E8FED4F81031D988F2
:101340005A88891AC9B25B7AC91AC9B22046FFF70E
:10135000DCFE00212046FFF712FF002184F8151162
:101360002046FFF744FF29212046FFF7E7FE2046ED
:1013700038BD00BFD4FD000000FE00002DE9F84399
:1013800004460E4615461F46BDF8209090F81431CD
:10139000032B1CD8DFE803F0023C4A5ED0F81011A2
:1013A0008A880B88D21A92B20B7AD21A92B2164459
:1013B000B6B2CB8848881B1A9BB2497A5B1A9BB29B
:1013C0001D44ADB23A4497B24B441FFA83F92A2127
:1013D0002046FFF7B3FE4FF0000884F804806671E2
:1013E00084F80680E77104212046FFF79DFE2B213B
:1013F0002046FFF7A3FE84F80480657184F8068018
:1014000084F8079004212046FFF78EFEBDE8F8839C
:10141000D0F810311A7A1644B6B25B7A1D44ADB2D8
:101420003A4497B24B441FFA83F9D0E7D0F8102121
:10143000D38851885B1A9BB2517A5B1A9BB21E44C7
:10144000B6B2127A1544ADB23B449FB24A441FFA79
:1014500082F9BCE7D0F810114A7A1644B6B28B88EC
:1014600008881B1A9BB2097A5B1A9BB21D44ADB265
:101470003A4497B24B441FFA83F9A8E730B585B0D8
:101480000446ADF80E10ADF80C204FF080721946EE
:10149000FFF79CFD054603AA0DF10E012046FFF75C
:1014A000E5FDD4F8180110B103681B689847BDF832
:1014B0000E10BDF80C2000920B462046FFF75EFF91
:1014C0002C212046FFF73AFE2B0A23716571022179
:1014D0002046FFF729FED4F8180110B103685B68B5
:1014E000984705B030BD30B587B00446ADF80E1052
:1014F000ADF80C20ADF80A304FF080720A99FFF772
:1015000065FD054603AA0DF10E012046FFF7AEFD6D
:101510000DF116020DF10A012046FFF7A7FDD4F8E0
:10152000180110B103681B689847BDF80C200092A1
:10153000BDF80A30BDF80E102046FFF71FFF2C2122
:101540002046FFF7FBFDBDF80E00002109E02A0A46
:101550004B1C04EB010C8CF80420234402311D7158
:101560000130BDF80A308342F1DA2046FFF7DCFD96
:10157000D4F8180110B103685B68984707B030BD14
:1015800030B587B00446ADF80E10ADF80C20ADF8BC
:101590000A304FF080720A99FFF718FD054603AA3A
:1015A0000DF10E012046FFF761FD0DF10A020DF16C
:1015B00016012046FFF75AFDD4F8180110B1036850
:1015C0001B689847BDF80E10BDF80A3000930B4613
:1015D000BDF80C202046FFF7D1FE2C212046FFF756
:1015E000ADFDBDF80C00002109E02A0A4B1C04EBFC
:1015F000010C8CF80420234402311D710130BDF828
:101600000A308342F1DA2046FFF78EFDD4F8180144
:1016100010B103685B68984707B030BD2DE9F0430F
:1016200085B005460D9FADF80E10ADF80C20ADF855
:101630000A303B681B683846984781463B689B6880
:101640003846984703AA0DF10E012846FFF70EFD14
:101650000CAA0DF10A012846FFF708FDD5F818017C
:1016600010B103681B689847BDF830300093BDF88F
:101670000A30BDF80C20BDF80E102846FFF77EFE9C
:10168000BDF80A80BDF80E30A8EB030808F1010888
:10169000BDF83030BDF80C209B1A013318FB03F85D
:1016A0000FFA88F82C212846FFF748FD002634461B
:1016B0000AE0080A631C2A19107102342B441971BC
:1016C000B4F5807F11D00136B04514DD3B685B680E
:1016D000384698470146B9F1807FEAD04FF08072D2
:1016E0002846FFF773FC0146E3E721462846FFF74B
:1016F0001BFD0024E7E744B9D5F8180110B10368D1
:101700005B68984705B0BDE8F08321462846FFF79F
:101710000BFDF1E72DE9F04182B004464FF08072F5
:10172000FFF754FC064694F9151189B2494209B2F3
:101730002046FFF75CFDD4F8180110B103681B6860
:101740009847D4F8102113885288013B013A92B28D
:1017500000929BB2002211462046FFF70FFED4F8FC
:1017600010311F885B8817FB03F73FB22C212046FE
:10177000FFF7E4FCC6F30728F6B20025294600E08F
:101780000135AF420EDB4B1C621882F80480023137
:1017900023441E71B1F5807FF2D12046FFF7C4FCCF
:1017A0000021EDE741B9D4F8180110B103685B6876
:1017B000984702B0BDE8F0812046FFF7B5FCF2E79C
:1017C00008B54FF6FF710120FFF7D2FB08BDFEE719
:1017D000172904D8343100EB41008088704708B5E0
:1017E000034B044A1A60044B40221A60FFF7EFFFD4
:1017F000D400002040FE0000F000002070B5044638
:101800000D4603681E699B68984702462946204694
:10181000B04770BD08B507EE902AF8EE677A9FEDE5
:10182000167A67EE877A343100EB41008388013BFA
:10183000072B19D8DFE803F00409180E181818133D
:101840009FED0E7A87EE870A08BD9FED0D7A87EE31
:10185000870AF9E79FED0B7A87EE870AF4E79FED99
:101860000A7A87EE870AEFE7084B094A1A60094BA4
:1018700064221A60FFF7ABFF3333534000007F430D
:1018800000C07F4400F07F4500FC7F46D40000206C
:1018900040FE0000F0000020024A0260024A02609E
:1018A000704700BFB0FE00008CFE000008B517298D
:1018B0000AD801F1340300EB430082800D290BD9D3
:1018C0000F2916D83F2308E00B4B0C4A1A600C4B2B
:1018D0002E221A60FFF77BFF2D235B1AC3F3C7018B
:1018E00003F00703032243EA0121064800F01EFB30
:1018F00008BD5923F1E700BFD400002040FE0000DE
:10190000F00000208C01002010B50446044B036059
:10191000044B0360A02103F066FF204610BD00BF0A
:10192000B0FE00008CFE0000054B1B793BB100238C
:10193000034A137100E00133B3F57A7FFBDB704794
:101940000000244210B50446124B0360124B0360A2
:10195000FFF7EAFF002309E0104A991D42F8213001
:1019600052F8210042F821000133DBB2172BF3D9E2
:101970000022A4F89C20094B094919605968596054
:10198000C3F83C21C3F84021064B4FF080721A6027
:10199000204610BD8CFE0000B0FE0000002001407B
:1019A0001044204400E100E0012800D070474FF6C9
:1019B000FF739942FAD110B5044C2046FFF7C2FFDD
:1019C000034A0449204603F009FF10BDF805002032
:1019D000000000209918000038B505460C46FFF7B6
:1019E000A3FF1C4A536823F030035360611E07298C
:1019F00027D8DFE801F0040B26142626261D154BF8
:101A00005A685A600123A5F89C3038BD114A5368C2
:101A100043F0100353600223A5F89C30F5E70D4A0C
:101A2000536843F0200353600423A5F89C30ECE78F
:101A3000084A536843F0300353600823A5F89C30EC
:101A4000E3E7054B054A1A60054BC5221A60FFF70C
:101A5000BEFE00BF00200140D400002040FE000078
:101A6000F000002010B517292CD80C46B0F89C20A7
:101A700001F1340300EB430399888A422AD0FFF72F
:101A8000ABFF164B5A6822F4F8125A605A6842EAC1
:101A900004425A601A6822F4C0221A601A681A6056
:101AA0001A6842F003021A600D4B93F84030002B85
:101AB000FAD1263403F1804303F5903353F8240020
:101AC00080B210BD074B084A1A60084B45221A60C5
:101AD000FFF77DFEFFF728FFD3E700BF002001409E
:101AE00000002442D400002040FE0000F00000204E
:101AF00038B505460C460B290ED94C08063C00EBC0
:101B0000840043683BB104F126011E4A52F82110BB
:101B100089B2A0B2984738BDFFF706FF95F86A2052
:101B2000184B063253F8221021F4804143F822105A
:101B3000D3F8402122F00E02C3F84021D3F85021FF
:101B400042F00E02C3F85021082C16D00A2C16D0F1
:101B5000062C10D000216A6E3AB195F86A3026330F
:101B6000084850F8230080B29047064A136843F0B3
:101B700003031360CFE70221EDE70121EBE7042126
:101B8000E9E700BF0020014008B5034BD3F854112A
:101B90000248FFF7ADFF08BD00200140F805002016
:101BA00008B54FF6FF710120FFF7FEFE08BD0000EB
:101BB000002807DB00F01F02400901239340024A7E
:101BC00042F82030704700BF00E100E0FEE700006F
:101BD00008B50B0A5A1ED2B2092A0CD8C9B2072975
:101BE00009D8013B084A52F8233013F82100003885
:101BF00018BF012008BD054B054A1A60054B33226A
:101C00001A60FFF7E3FF00BF28000020D800002083
:101C1000CCFE0000F400002010B50B0A03F1FF3CDD
:101C20005FFA8CFCBCF1090F2AD85FFA81FEBEF185
:101C3000070F25D8013B00EB030C9CF8FEC34CFAC0
:101C400001FC1CF0010F40D0184490F8080440FA41
:101C500001F111F0010F2ED0D2B13D4A52F823000C
:101C60004FEA8E0E0EF180014FF0000C00F801C01B
:101C700052F823300EF1400E012203F80E2023E02B
:101C8000344B354A1A60354B3A221A60FFF79EFFF3
:101C90002F4A52F823004FEA8E0E0EF140014FF00A
:101CA000000C00F801C052F823300EF1800E012222
:101CB00003F80E2008E0264951F823104FEA8E035E
:101CC000803382F00102CA5410BD00EB030C9CF873
:101CD000F4C34CFA01FC1CF0010F30D0184490F80A
:101CE000120440FA01F111F0010F20D07AB1184925
:101CF0004FEA8E0E0EF14000012251F8234022548B
:101D000051F823300EF1800E03F80E20DCE7104965
:101D10004FEA8E0E0EF18000002251F8234022542B
:101D200051F823300EF1400E03F80E20CCE708499D
:101D300051F823104FEA8E038033CA54C4E7044994
:101D400051F823104FEA8E034033CA54BCE700BF5A
:101D500028000020D8000020CCFE0000F400002065
:101D600008B50B0A5A1ED2B2092A11D85FFA81FCB3
:101D7000BCF1070F0CD8013B094A52F8233013F885
:101D80002C2003689B68B2FA82F25209984708BD7A
:101D9000044B054A1A60054B5E221A60FFF716FFD6
:101DA00028000020D8000020CCFE0000F400002015
:101DB00010B5080A431EDBB2052B18D8C9B2072993
:101DC00015D8421E0E4B890001F5607C4FF0000EC5
:101DD00053F8224004F80CE053F8223001F550711A
:101DE00001225A54223040B2FFF7E2FE10BD054BEB
:101DF000054A1A60054B90221A60FFF7E7FE00BF04
:101E000028000020D8000020CCFE0000F4000020B4
:101E100008B50B0A5A1ED2B2052A0CD8C9B2072936
:101E200009D8013B084A52F82330890001F5507166
:101E300000225A5408BD054B054A1A60054B9A22E8
:101E40001A60FFF7C3FE00BF28000020D800002062
:101E5000CCFE0000F400002010B50446836813B1E6
:101E6000032201469847204610BD000070B5064683
:101E70000546084B45F8043B00F5417403E0103C6F
:101E80002046FFF7E9FFA542F9D1034B3360304606
:101E900070BD00BF48FF000018FF000010B50446E9
:101EA000FFF7E4FF40F21C41204603F09CFC204673
:101EB00010BD000000B50F4B036084460E4B4CF87C
:101EC000043B4FF0050E0CE000221A605A609A6045
:101ED000DA60013910330029F6DA0EF1FF3E0CF119
:101EE000800CBEF1000F02DB63460721F3E75DF8CB
:101EF00004FB00BF18FF000048FF0000012800D0CD
:101F000070474FF6FF739942FAD110B5044C204642
:101F1000FFF7D0FF034A0449204603F05FFC10BDE1
:101F20008C010020000000206D1E000010B50B0A7F
:101F3000581EC0B2092815D8C9B2072912D8013BCA
:101F40000C48890001F5A07C02F0010E50F82340F6
:101F500004F80CE050F8233001F5C071C2F34002E0
:101F60005A5410BD044B054A1A60054BAA221A6048
:101F7000FFF72CFE28000020D8000020CCFE000037
:101F8000F40000202DE9F8430E4614460B0ACAB2AD
:101F9000591EC9B2092900F290800546072A00F2AD
:101FA0008C80013B00EB030C9CF8FE030121B14047
:101FB00020EA01008CF8FE039CF8F40320EA0100FB
:101FC0008CF8F4039CF8080420EA01008CF808045B
:101FD0009CF8120420EA01008CF812043F4F57F8D5
:101FE0002300920002F180084FF0000C00F808C0B6
:101FF00057F8230002F1C00E00F80EC057F8230076
:1020000002F1400900F809C014F0020F04D057F89B
:102010002300012700F8087014F0040F05D0EF1812
:1020200097F8FE03084387F8FE0314F0080F0BD05F
:10203000EF1897F8F403084387F8F403274850F89B
:102040002300012700F8097014F0100F0FD0EF18CB
:1020500097F80804084387F808042048012750F837
:10206000232002F80E7050F8230000F8097014F0D5
:10207000200F0BD0E81890F812240A4380F812249D
:10208000164A52F82330012203F80E2014F0C00F34
:102090001BD114F4807F05D02B689B680122314648
:1020A0002846984714F4007F05D02B689B680022CF
:1020B000314628469847BDE8F883094B094A1A601B
:1020C000094BB2221A60FFF781FD054B054A1A60E1
:1020D000054BD4221A60FFF779FD00BF28000020CD
:1020E000D8000020CCFE0000F400002070B50446AB
:1020F0000D4616460022FFF719FF324629462046B4
:10210000FFF740FF70BD38B504460023036043600D
:102110008360C3608B6833B10D4602229847EB6839
:10212000E360AB68A360204638BD10B50446836801
:102130002BB10322014698470023A360E3602046A9
:1021400010BD000070B50D0A6B1EDBB2052B10D858
:102150000446CEB2072E0CD80368DB699847013DD0
:1021600006EBC50604EB061000210430FFF7DDFF87
:1021700070BD044B044A1A60044B88221A60FFF7B2
:1021800025FD00BFD8000020CCFE0000F400002098
:1021900008B5836813B1C368984708BD01F05AFABF
:1021A000F8B5044616464D1EEF0002EBC50004EBE1
:1021B00000100430FFF7ECFF3C44344494F8C4337F
:1021C0007BB1084951F82500B30003F5407410F8BD
:1021D0002620D2B2025551F8252003F56073002164
:1021E000D154F8BD2800002008B5064BDB89C3F3A5
:1021F0004E0303B908BD5A1ED2B201210248FFF7AF
:10220000CFFFF7E7004C00408C01002008B5064BDB
:10221000DB8BC3F34E0303B908BD5A1ED2B20221B1
:102220000248FFF7BDFFF7E7004C00408C0100209B
:1022300008B5064BDB8DC3F34E0303B908BD5A1E28
:10224000D2B203210248FFF7ABFFF7E7004C004092
:102250008C01002008B5064BDB8FC3F34E0303B996
:1022600008BD5A1ED2B204210248FFF799FFF7E7D2
:10227000004C00408C01002008B5074BB3F84E30ED
:10228000C3F34E0303B908BD5A1ED2B20521034859
:10229000FFF786FFF7E700BF004C00408C010020ED
:1022A00008B5074BB3F85E30C3F34E0303B908BD5E
:1022B0005A1ED2B206210348FFF772FFF7E700BFAC
:1022C000004C00408C01002082B002460B46EC46D8
:1022D000D0E900018CE8030093E8030082E80300E2
:1022E0009CE8030083E8030002B0704738B5054658
:1022F0000C46FFF7E9FFAB68A268AA60A360EB6831
:10230000E268EA60E36038BD10B584B00446684610
:10231000FFF7F9FE21466846FFF7E8FF6846FFF73A
:102320009BFD204604B010BDF8B50F4619463D0A86
:102330006B1EDBB2052B11D80646F8B207280DD864
:10234000022A2CD0032A3CD0012A0FD0304B314A2C
:102350001A60314B79221A60FFF738FC2C4B2D4A5A
:102360001A602D4B67221A60FFF730FC6B1E2B4A58
:1023700052F823C0820002F5407200240CF802409B
:1023800006EBC303034483F8C443013D00EBC500DF
:1023900006EB00100430FFF7B7FF00232FE06B1EA1
:1023A0001E4A52F82340820002F540724FF0010CA1
:1023B00004F802C006EBC3030344002283F8C423DD
:1023C000E3E76B1E154A52F823C0820002F5407203
:1023D0001CF82040E4B20CF8024006EBC3030344AF
:1023E000012283F8C423D0E70C4A52F825409A0012
:1023F00002F560724FF0000C04F802C00133072BA5
:10240000F2D933689B69394630469847F8BD00BF1A
:10241000D8000020CCFE0000F4000020280000209E
:1024200008B54FF6FF710120FFF768FD08BD0000F9
:10243000002807DB00F01F02400901239340024AF5
:1024400042F82030704700BF00E100E0FEE70000E6
:10245000064B036003691B8813F0010FFAD18368F0
:1024600001221A80024B0360704700BFE8FF0000A2
:10247000BCFF000010B50446FFF7EAFF4C212046E0
:1024800003F0B1F9204610BD012800D0704708B50F
:102490004FF6FF73994200D008BD0B4B1A680B4BE7
:1024A0001A6007210A4B06E000221A605A609A60FF
:1024B000DA60013910330029F6DA064A06490020AD
:1024C00003F08CF9E8E700BF54000020C8000020AA
:1024D0000C01002000000020DD24000010B5054C98
:1024E00003E0103C2046FFF7B7FC034B9C42F8D1B9
:1024F00010BD00BF8C0100200C01002010B53B4C2A
:1025000004603B4C04604FF0000C80F804C0437141
:102510000123837181608B1DC36001F10803036196
:1025200001F10C03436101F10E03836101F12A0300
:10253000C36101F12C03036201F12E0343622D4BB1
:102540008362A0F82CC00363A0F834C08363A0F8B2
:102550003CC0BDF80830A0F840304264264B994298
:1025600015D0264B99421FD0254B994229D0254B97
:10257000994233D140F60123838540F603238386B5
:1025800040F602238387172380F8483010BD40F2BD
:102590000513838540F2071383864FF48373838783
:1025A000142380F84830F1E740F20363838540F25A
:1025B0000563838640F204638387152380F84830DF
:1025C000E4E740F20533838540F20733838640F227
:1025D00006338387162380F84830D7E70A4B0B4A27
:1025E0001A600B4B68221A60FFF730FFBCFF000037
:1025F000E8FF00008C010020002000400024004083
:1026000000280040002C0040DC00002070FF00008B
:10261000F800002038B504460122818D2E48FFF7CE
:1026200085FC6379002B4ED002222B4DA18D2846CC
:10263000FFF7A8FC0122A18E2846FFF777FC6379FB
:10264000002B42D00122244DA18E2846FFF79AFC90
:102650000122A18F2846FFF769FC6379002B36D051
:102660000222A18F1C48FFF78DFC636C6279002A5F
:102670002FD04FF48172186801680D689988A847B7
:10268000A36801221A8063792BB1B4F8403043F477
:102690000063A4F84030B4F8403043F48173A4F8E8
:1026A0004030A1680A8892B213430B80E36900228C
:1026B0001A80A26813889BB223F001039BB2138097
:1026C0000123237138BD0122AFE70222BBE70122BB
:1026D000C7E70122CFE700BF8C0100202DE9F041C0
:1026E00004460F4616461D46037963B163796BB104
:1026F000A3799BB1636C18680268D2F80880002245
:102700009988C0470AE0FFF785FFEFE7636C186818
:1027100002685268998890470028F7D1226A0023FE
:1027200013802269138062691288327011E01A46A0
:10273000F85CA1690880206A008810F0010FFAD0C7
:1027400061690988B154206A008810F0020FFAD03C
:1027500001339D42EBDC63794BB1A3797BB1636CB0
:1027600018680268946801229988A04707E0636CA2
:10277000186802685268998890470028F7D028B2F4
:10278000BDE8F081F8B504460E46154603795BB105
:10279000637963B1A37993B1636C18680268976831
:1027A00000229988B8470AE0FFF734FFF0E7636C2E
:1027B000186802685268998890470028F7D1236A00
:1027C000002018802369188008E0325CA3691A8011
:1027D000236A1B8813F0020FFAD001308542F4DC23
:1027E00063794BB1A3797BB1636C18680268946814
:1027F00001229988A04707E0636C18680268526854
:10280000998890470028F7D028B2F8BD2DE9F0410B
:1028100004460F4616461D46037963B163796BB1D2
:10282000A3799BB1636C18680268D2F80880002213
:102830009988C0470AE0FFF7EDFEEFE7636C186880
:1028400002685268998890470028F7D1226A0023CD
:102850001380226913806269128832700FE0A269C6
:102860001780206A008810F0010FFAD06269128880
:10287000F254206A008810F0020FFAD001339D4212
:10288000EDDC63794BB1A3797BB1636C18680268A6
:10289000946801229988A04707E0636C1868026871
:1028A0005268998890470028F7D028B2BDE8F08197
:1028B00038B504460D4603793BB1054B1968B1FBA9
:1028C000F5F1E36889B2198038BDFFF7A3FEF4E79C
:1028D0005000002038B504460D4603790BB1A571B0
:1028E00038BDFFF797FEFAE738B504460D46037981
:1028F0003BB1636C1868026894682A469988A047BF
:1029000038BDFFF787FEF4E700B583B08DF80710F8
:10291000836833B1C3680DF10701984703B05DF8D0
:1029200004FB00F097FE000008B5034B9989C9B27B
:102930000248FFF7E9FF08BD001000400C0100202D
:1029400008B5034B9989C9B20248FFF7DDFF08BDFE
:10295000001400401C01002008B5034B9989C9B23E
:102960000248FFF7D1FF08BD001800402C010020ED
:1029700008B5034B9989C9B20248FFF7C5FF08BDE6
:10298000001C00403C01002008B5034B9989C9B2E6
:102990000248FFF7B9FF08BD002000404C010020AD
:1029A00008B5034B9989C9B20248FFF7ADFF08BDCE
:1029B000002400405C01002008B5034B9989C9B28E
:1029C0000248FFF7A1FF08BD002800406C0100206D
:1029D00008B5034B9989C9B20248FFF795FF08BDB6
:1029E000002C00407C01002038B504460023036021
:1029F00043608360C3608B6833B10D460222984701
:102A0000EB68E360AB68A360204638BD38B5054687
:102A10000C46FFF759FCAB68A268AA60A360EB689C
:102A2000E268EA60E36038BD10B584B004466846E9
:102A3000FFF7DAFF21466846FFF7E8FF6846FFF731
:102A40000BFA204604B010BD10B5044690F948308A
:102A5000103B064800EB0310FFF7E6FFE369012295
:102A60001A8094F94800FFF7E3FC10BD0C01002028
:102A700008B54FF6FF710120FFF706FD08BDFEE720
:102A800008B500F0C1FB124A0AE01068516850F81E
:102A9000230041F82300013391688B42F5D30C32B7
:102AA0000C4B9A4201D20023F6E70B4A08E011686A
:102AB000002041F82300013351688B42F7D30832DC
:102AC000064B9A4201D20023F6E704F03BFF00BF19
:102AD000F82701000428010008280100102801003F
:102AE000002807DB00F01F02400901239340024A3F
:102AF00042F82030704700BF00E100E000280CDB06
:102B000000F01F024009012393402030034A42F89D
:102B10002030BFF34F8FBFF36F8F704700E100E0AD
:102B2000FEE70182826813889BB243F001031380A1
:102B300011F0010F05D0826813889BB243F48053D3
:102B4000138011F0020F06D0826813889BB223F421
:102B500080539BB2138011F0040F04D08268138855
:102B6000C3F30E03138011F0080F0DD08268138891
:102B70006FEA43436FEA53439BB213808268138822
:102B80009BB243F48043138011F0100F0ED0826883
:102B900013886FEA43436FEA53439BB21380826802
:102BA00013889BB223F480439BB2138011F0200F53
:102BB00006D0826813889BB223F400639BB2138013
:102BC00011F0400F05D0826813889BB243F4006374
:102BD0001380826813889BB223F001039BB2138099
:102BE00070470000C160044B1B68B3FBF1F18368C0
:102BF00089B2D980704700BF50000020836801224D
:102C00005A837047836800225A83704738B5044658
:102C1000114B03600379DBB1A3685A8912F0010FED
:102C2000FAD101221A80A17CE37C0C4D002243EAF8
:102C300001212846FFF77AF9A17C237D002243EA8F
:102C400001212846FFF772F9054B2360204638BD65
:102C5000034B0360FAE700BF8C0001008C010020E9
:102C60005800010010B50446FFF7D0FF1821204698
:102C700002F0B9FD204610BD012800D0704708B50C
:102C80004FF6FF73994200D008BD0D4B1A680D4BEB
:102C90001A600D4B0020186058609860D860186169
:102CA00058619861D861186258629862D862186356
:102CB00058639863D863054A054902F08FFDE3E73E
:102CC00054000020CC000020B405002000000020AB
:102CD000D52C000010B5054C03E0103C2046FFF752
:102CE000BBF8034B9C42F8D110BD00BFF405002097
:102CF000B405002010B5044607482060074820604E
:102D000000202071A160E2602382A074E07420752D
:102D100000F0F9FD204610BD580001008C000100B4
:102D200038B5044683682F4A934240D02E4A9342D6
:102D300044D02E4A934247D02D4A93424AD1092388
:102D400083740623C37407230375A17CE37C294D98
:102D5000012243EA01212846FFF7E8F8A17C237D00
:102D6000012243EA01212846FFF7E0F8A368012584
:102D70001D80A26813889BB243F080031380A26871
:102D8000138903F00E031381A268538B9BB223F0C7
:102D90000F039BB253832368DB68218A2046984740
:102DA00023681B69E16820469847257138BD0123D7
:102DB00083740223C37403230375C6E70223837459
:102DC000C37403230375C0E7032383740222C27410
:102DD0000375BAE7084B094A1A60094B20221A60AA
:102DE000FFF79EFE00100040001400400018004055
:102DF000001C00408C010020E00000200C000100BD
:102E0000FC00002010B50446037923B1A368988B19
:102E100000F0010010BDFFF783FFF7E710B504468F
:102E200003793BB1A3689A8B12F0010FFAD098890D
:102E3000C0B210BDFFF774FFF4E738B504460D4685
:102E4000037933B1A3689A8B12F0020FFAD0DD81B7
:102E500038BDFFF765FFF5E710B5044683682BB171
:102E60000322014698470023A360E360204610BD7B
:102E700038B5044603797BB1A368C3F381240025E8
:102E80005D8304F11000FFF739FE2946044800EB8A
:102E90000410FFF7E1FF38BDFFF742FFECE700BF8A
:102EA000B405002000B583B08DF80710836833B1F6
:102EB000C3680DF10701984703B05DF804FB00F00B
:102EC000C9FB000008B58189C0F38120044B03EBE6
:102ED0000010836813B1C9B2FFF7E4FF08BD00BF5B
:102EE000B405002008B50248FFF7ECFF08BD00BF9D
:102EF0000010004008B50248FFF7E4FF08BD00BF1E
:102F00000014004008B50248FFF7DCFF08BD00BF11
:102F10000018004008B50248FFF7D4FF08BD00BF05
:102F2000001C004038B50446002303604360836002
:102F3000C3608B6833B10D4602229847EB68E360AB
:102F4000AB68A360204638BD38B505460C46FFF790
:102F5000BBF9AB68A268AA60A360EB68E268EA60AC
:102F6000E36038BD10B584B004466846FFF7DAFF69
:102F700021466846FFF7E8FF6846FEF76DFF2046EA
:102F800004B010BD70B504460E46037983B1A56840
:102F9000C5F381253146084800EB0510FFF7E2FF35
:102FA000A36801225A8305F11000FFF799FD70BD57
:102FB000FFF7B6FEEBE700BFB405002008B54FF6FB
:102FC000FF710120FFF758FE08BD000082B001909C
:102FD000304B5B681AB2C3F30903002B58D012F4CC
:102FE000007F03D06FEA83536FEA9353294A5268F4
:102FF00012F4800F35D0274A526802F4E022B2F56D
:10300000A02F26D0244A92ED216AB8EE466AD2ED6E
:103010001B7AF7EE006A86EE867A9FED206A37EE1D
:10302000067AF8EE677A37EE677ADDED017AB8EE68
:10303000676A07EE903AF8EEE77AC7EE875A76EEBF
:10304000E56AC6EE267AFCEEE77A17EE900A02B041
:103050007047114A92ED226AB8EE466AD2ED1C7AA8
:10306000D7E70C4A526802F4E022B2F5A02F07D04D
:10307000094A92ED196AB8EE466AD2ED137AC8E7AA
:10308000054A92ED1A6AB8EE466AD2ED147AC0E7A4
:103090000198DCE7000401400010200000004044DB
:1030A00010B5514B9B6803F00703052B17D8DFE8D9
:1030B00003F003122B3A464A4B4B9B6C13F0010F63
:1030C00004D04A4B4FF400421A6008E0484B1A689B
:1030D000464B1A6003E0454B42F2B8421A60424B3D
:1030E0009B6803F07003302B69D051D8102B5CD053
:1030F000202B36D13C4B1B6B13F4004F5AD03D4B69
:103100004FF4FA321A6033E0374B1B6B13F4004F65
:1031100004D0364B4FF4FA321A60E0E7334B4FF4E9
:1031200000421A60DBE7304B5B68C3F3024332486E
:1031300098402E4C2060FFF749FF2060CFE72B4BD3
:103140002E4A1A60CBE7284B9B6C13F0020F03D07A
:10315000264B2B4A1A60C2E72A4B1A68234B1A6087
:10316000BDE72BB9204B9B6C214B1A68214B1A6091
:103170001D4B9968C1F302419A68C2F302721B4861
:103180000368CB4003601B490B68D3400B6010BD44
:10319000402B20D0502BEBD1134B9B6C13F0020F24
:1031A0001DD0144B164A1A60E2E7124B42F2B842A5
:1031B0001A60DDE70F4B4FF400421A60D8E70A4B64
:1031C0005B68C3F302430C4898400A4C2060FFF749
:1031D000FDFE2060CCE7074B084A1A60C8E7094BA0
:1031E0001A68044B1A60C3E7000401405400002031
:1031F000C40000205000002060E3160040787D01EC
:10320000404B4C00C000002008B53D4B4FF4B54288
:103210009A813C4AD2F8883043F47003C2F888306F
:10322000394B80225A61394B5B6813F4807FFAD1A5
:10323000364B374A1A60354B5B6813F4807FFAD1FE
:10324000344B41F230021A615A61334946F65A133F
:103250000B60324B324A1A60324A538D9BB243F0B4
:1032600008035385938D9BB223F008039BB293858B
:10327000CB6843F0B07343F48033CB60002300E0AD
:103280000133C72B0ADC244A926C12F0020FF7D0EC
:1032900021490A6D42F002020A65F1E7224B4FF420
:1032A00000421A601F4A538D9BB243F001035385BD
:1032B000938D9BB223F001039BB2938502F53742B5
:1032C000D36843F48073D360002300E00133C72B3D
:1032D0000ADC114A926C12F0010FF7D00E490A6D08
:1032E00042F001020A65F1E70B4B4FF480325A605D
:1032F0000E4A9A6000221A60FFF7D2FE08BD00BF96
:103300000048004000ED00E0003004E00000014013
:1033100005005A690010014000040140C00000206F
:10332000006CDC02004D0040C4000020550000107D
:10333000FEE70000012800D070474FF6FF73994266
:10334000FAD1034B00221A605A609A60F4E700BF7A
:103350009806002070B5044616460346164A43F800
:10336000442B002545645D609D6005650F22043097
:1033700002F043FEE574257502236375A561E561DE
:1033800000220023C4E90823A5622686304602F005
:103390003FFAE06238B10023636384F83830E363B6
:1033A0002364204670BD054B054A1A60054B362242
:1033B0001A60FFF7BDFF00BFF0000100E40000202D
:1033C000B80001000001002010B50E4B1B68B3B11E
:1033D0000D490A6849681A6259624FF47A7404FB0D
:1033E00000F00A4CA4FB00408009121841F10001D2
:1033F0001A62596201225A7500F084FB10BD00F078
:103400005FFBFBE7A4060020B8000020D34D62104C
:103410002DE9F041214B1B68DC6B00252E462F4621
:1034200015E0216A626A1E4B18685B688842934106
:1034300016D30023637513E0A06A03689B6898475E
:1034400088B9002363750EE0E46B0135ADB2154B0E
:103450009B689D420FDA94F81480637D012BE0D0C5
:10346000637D032BE8D0637D002BEDD14645EBD285
:1034700046462746E8E74FB1084B1B68BB4203D0DE
:10348000094B1F6000F014FBBDE8F081074B084AB0
:103490001A60084BBF221A60FFF74AFFA4060020FB
:1034A000B800002098060020A8060020E4000020B4
:1034B000B80001000001002008B5084A13685168EF
:1034C000013341F1000113605160054B1A689369A3
:1034D00001339361FFF79CFF08BD00BFB8000020D7
:1034E000A406002008B54430FEF752FE08BD43682C
:1034F0007BB10368CB6343680B640368196443685A
:10350000D9634160012381F83830836801338360D7
:103510007047C963096441600160F3E738B531B1B0
:1035200004460D4690F838300BB900230EE0144BDA
:10353000144A1A60144B42221A60FFF7F9FEE06A3F
:103540004FF0A50C00F803C001339BB2208E9842C7
:10355000F5D81146204600F087FA257500236375DB
:10356000A361E36100200021C4E90801A36200F027
:10357000D1FA21460548FFF7BAFF00F0D0FA38BD6E
:10358000E4000020B800010000010020980600209F
:103590008368012B11D00A6CCB6BD3630A6C1A645D
:1035A00003688B420DD043688B420DD0002381F815
:1035B00038308368013B83607047002303604360B9
:1035C000F4E7CB6B0360EEE70B6C4360EEE70000C3
:1035D00090F8383003B9704710B5044600F09AFAF5
:1035E00021460448FFF7D4FF00F099FA00F08AFA68
:1035F00010BD00BF9806002010B50446074B0360BD
:10360000FFF7E6FFE06A08B102F0EFF80023E3629B
:1036100004F14400FEF720FC204610BDF00001003C
:1036200010B50446FFF7E8FF5821204602F0DBF80A
:10363000204610BD10B5044603689B689847204695
:10364000FFF7C6FF10BD08B54FF6FF710120FFF769
:1036500071FE08BDFEE70000012800D070474FF65C
:10366000FF739942FAD1054B00221A605A609A60A2
:10367000DA601A745A749A74F0E700BFAC0600203E
:10368000F8B50F461646044678B1194BD86800289D
:103690002BD003681D6813460A462146A847F8BD8B
:1036A00000253D550D2D1CD00134B4421BDA1048C5
:1036B00000680028F4D003685B68984705460C4B07
:1036C0001B7C002BEDD00A4B58680028E9D003681A
:1036D0009B6829469847074B1B68986802F074FA64
:1036E000DFE7601CDBE72046D9E70020D7E700BF13
:1036F000AC06002064000020F0B585B00E461546EB
:10370000012826D00446022828D0384BD868002843
:1037100069D003685F6813460A462146B8471BE034
:103720000134AC4217DA314B58680028F8D00368EE
:103730009B68315D98472D4B5B7C002BF0D0335D4F
:103740000A2BEDD1294B586803689B680D219847D7
:10375000E6E70024E5E7284605B0F0BD234B9B686B
:10376000002B3ED0224B93E803000290ADF80C10E2
:10377000204B93E8030000908DF8041002AC05E0A4
:103780001A4B9868013403689B6898472178002990
:10379000F6D1002400E00134AC4215DA134B9868EE
:1037A0000028F8D003689B68315D98470F4B9B7CDD
:1037B000002BF0D0335D0A2BEDD10C4B98680368D9
:1037C0009B680D219847E6E76C4605E0074B986833
:1037D000013403689B68984721780029F6D1284670
:1037E000BAE71046B8E70020B6E700BFAC060020F5
:1037F000FC0001000401010008B50146064BD86831
:1038000018B10368DB68984708BD02F0A3FC0923E0
:1038100003604FF0FF30F7E7AC06002003460A468E
:103820000649C86828B110B50168CC691946A04797
:1038300010BD4FF40053536000207047AC060020C9
:1038400084461346054AD06830B110B50268146A40
:103850000A466146A04710BD00207047AC06002014
:1038600002280FD908B50146074BD86818B103687C
:103870005B6A984708BD02F06DFC092303604FF0B6
:10388000FF30F7E701207047AC06002008B502F0D2
:1038900061FC162303604FF0FF3008BD4FF0FF308E
:1038A0007047000008B501600274044B1868642377
:1038B00001220021406802F081FA08BD6400002066
:1038C00008B541604274044B18686423012200214A
:1038D000806802F073FA08BD6400002008B58160BA
:1038E0008274044B1868642301220021C06802F02E
:1038F00065FA08BD6400002008B54FF6FF7101208D
:10390000FFF7AAFE08BD7047FEE7000008B5054BAB
:103910001B8813F4807F02D0FFF706F808BDFFF77D
:10392000E1FAFBE70010004008B5054B1B8813F4D3
:10393000807F02D0FFF704F808BDFFF7DBFAFBE752
:103940000014004008B5054B1B8813F4807F02D09B
:10395000FFF702F808BDFFF7D5FAFBE700180040B3
:1039600008B5054B1B8813F4807F02D0FFF700F8E1
:1039700008BDFFF7CFFAFBE7001C004008B5064B77
:103980001B8803F4C063B3F5C06F02D0FEF7FCFFE1
:1039900008BDFFF7B9FFFBE70020004008B5064B64
:1039A0001B8803F4C063B3F5C06F02D0FEF7F8FFC5
:1039B00008BDFFF7A9FFFBE70024004008B5064B50
:1039C0001B8803F4C063B3F5C06F02D0FEF7F4FFA9
:1039D00008BDFFF799FFFBE70028004008B5064B3C
:1039E0001B8803F4C063B3F5C06F02D0FEF7F0FF8D
:1039F00008BDFFF789FFFBE7002C0040FEE7000051
:103A000010B50446024B0360FFF7F6FD204610BDDB
:103A10001401010010B50446044B0360FFF7ECFDF0
:103A20005821204601F0DFFE204610BD14010100A0
:103A3000024B1A68024B1A60704700BFA8060020AC
:103A4000A4060020014B1B68D86A7047A40600201A
:103A5000014B1B68586B7047A4060020014B1B6884
:103A600058637047A406002038B5038E442B0DD947
:103A7000C46A443BE21842634FF080751564084DF8
:103A8000D563506251B10222E25038BD054B064A5F
:103A90001A60064B49221A60FFF7B0FF0322F3E7D2
:103AA00035360000E8000020687A0000040100209C
:103AB000024A536843F080535360704700ED00E0C2
:103AC0000E4B1B680E4AA2FB03239B09013B4FF0E0
:103AD000E0214B6100228A6105230B6106E04FF073
:103AE000E0231B6913F4803FF9D001328242F6D300
:103AF0004FF0E02300221A61704700BF54000020FD
:103B0000D34D621001DF704720BF704708B5FFF743
:103B1000FBFFFCE7BFF34F8FBFF36F8F7047BFF31F
:103B20006F8F704708B5FFF7C7FC08BDEFF309803A
:103B3000EFF314831EF0100F04BF43F0100320EDC9
:103B4000108A20E9F80F03461846FFF787FF04465E
:103B5000FFF778FF0346E31A0A2BD4BF01230023A3
:103B6000DBB2002B01D0FFF749FFFFF761FFFFF742
:103B70006FFF03461846B0E8F80F6FF0020E13F01F
:103B8000100F1CBF2EF0100EB0EC108A83F31488B7
:103B900080F30988704700BF1EF0040F0CBFEFF3DD
:103BA0000880EFF309800449C1F800E000F006F84E
:103BB0000149D1F800E070470801002010B5836981
:103BC00013F8023C23B1012B41D1FFF721FC3DE06A
:103BD000582001F00CFE0446C8222149FFF7BAFB29
:103BE000204B2360002201212046FFF797FC1E4B4B
:103BF0001A681E4B1A601E4BE02283F822201D4BD0
:103C00001B681D4AA2FB03239B09013BB3F1807F84
:103C10000AD24FF0E0225361154BE02183F82310C4
:103C20000023936107231361144B6FF002021A60A3
:103C30000E4B1B685B6B03F1240282F309881B782F
:103C400083F31488BFF36F8FBFF36F8F10BD0C4BDE
:103C50000C4A1A600C4BFE221A60FFF7CFFE00BF21
:103C6000AC7A00001401010098060020A406002090
:103C700000ED00E054000020D34D62100801002048
:103C8000E8000020687A000004010020704700BFAF
:103C90004FF08070704700BFC3684268591CC16014
:103CA00032F8130040F08070704700BF0023C360FB
:103CB000704700BF10B51021044601F094FD204666
:103CC00010BD00BF2DE9F04F87B00546059318469B
:103CD0005B00C3F101031BB20028109E0493C0F2E5
:103CE000938089B292B24FF0000A01910292CDF80E
:103CF0000CA01FFA80F82868019A029903681FFA3D
:103D00008AF401EB0409A2EB080B1FFA8BFB1FFAE4
:103D100089F99F684A4659463346B8472868029948
:103D200003680F1BBFB259463A46D3F808B0334672
:103D3000D8472868019A036808EB020B1FFA8BFB2F
:103D40004A465946D3F808903346C847286803685E
:103D50003A4659469F683346B84728680299019AFF
:103D60000368A2EB040B08EB01071FFA8BFBBFB241
:103D7000D3F808903A4659463346C847286802990E
:103D80000368A1EB08091FFA89F959464A46D3F896
:103D900008B03346D8472868019A036802EB040B41
:103DA0001FFA8BFB3A4659469F683346B847286846
:103DB00003684A469F6859463346B847039B049AAE
:103DC00003EB440423B2039302EB430390B2A4B287
:103DD000002B08F1FF3100F1020204440AF1010A4C
:103DE0000CDD09B20FFA8AF320B212B28B420591B0
:103DF0000390049208DC1FFA81F87CE7059A0FFA19
:103E00008AF39A42BFF677AF07B0BDE8F08F00BFE4
:103E10002DE9F0471378D5699F0686B007D51E07B0
:103E2000144607D55A0629D423F02003237006B080
:103E3000BDE8F087B2F908E0B4F90C30B2F90A2015
:103E40000F69B4F90EC09E4502DD71469E460B46D1
:103E5000624502DD114662468C4600681FFA8CF509
:103E60000668CDE900579BB2B56992B21FFA8EF190
:103E7000A847237823F020032370D8E700296FD0C8
:103E800091F808C01CF0020C68D00A7FB1F814E069
:103E9000B1F816C0D70707D50EF1030E0CF1030CCD
:103EA0001FFA8EFE1FFA8CFC96072ED4B4F81080F1
:103EB000678A08EB0E0607EB0C021FFA82FAB6B20D
:103EC0002681A4F80AA02A68B2F80490C844C6441F
:103ED0000FFA8EFEA4F80CE02A68B2F80680474478
:103EE000BC440FFA8CFCA4F80EC0B1F91A706745F7
:103EF0009DDDB1F91810714599DD296811B12D7951
:103F0000EA0709D403F0BF038EE791F83C200132A1
:103F100062441FFA82FCC9E70D68002DF2D00F89B8
:103F2000B7F5047FEED1CB888988039501FB03F5B3
:103F300004955D1E4B1E334431460B4E00680296BD
:103F400055440026ADB205960668009502AD019570
:103F50009BB275695246A8472378D3E7E646A5E7A2
:103F60008C468E46A2E700BF2C01010038B50B68D5
:103F7000016004461B68084698472368A0801A68B9
:103F8000184653689847A288E080053A12B2002389
:103F9000A284A2836FF07F42411FC4E90F2340F245
:103FA0000110C4E9043309B24FF004152087054815
:103FB00060642562E184E1832363A36184F848306F
:103FC000204638BDEF8B5E000B680363B1F9043007
:103FD0008386B1F90630C386704700BF70B5B0F86C
:103FE00004C0C28800680CF1FF3C013A1CF4004F89
:103FF00095B21FFA8CF312B20C4616BF1946002177
:104000000023002A82B0BCBF2A4600250668CDE9FD
:104010000054A8BF0022B469A04702B070BD00BF21
:1040200070B48B42BDF90CC0049E02DA0C461946EE
:104030002346944502DA14466246A44600681FFAF5
:104040008CF40568CDE90346AC699BB2A44692B2F4
:1040500070BC89B2604700BF00B551EA020E05D4BA
:10406000002B03DD5DF804EBFFF72CBE5DF804FBCD
:104070002DE9F04F87B01546BDF940C0119A019265
:1040800065450C46064689B2AAB200F0A8809C425B
:104090001FFA8CF700F0B380581A03B2BC1A24B28E
:1040A000306883EAE37CACEBE37C84EAE477002BC2
:1040B00005681FFA8CF3A7EBE4774FF6FF780293BD
:1040C000BBB2CDE904120FFA8CFB0393AD68019BE0
:1040D0000FFA87FAD4BFC1464FF00109002CC8BFC0
:1040E0004FF00108A847D345DDE904122CDBBBF1F2
:1040F000000F26DD49441FFA81FA51464FEA6B054D
:1041000000279246039B029A2B441DB2AB459BB2FB
:1041100008EB0A04A3EB020307F101074FDC306848
:1041200004911DB20368A2B2D3F808A0019BD04746
:1041300004993BB224B249449B4589B21FFA84FAE0
:10414000E0DC07B0BDE8F08FBAF1000FF9D04244CF
:104150001FFA82FB5A464FEA6A0500278B46029BEC
:1041600003992B441DB2AA459BB209EB0B04A3EBA8
:10417000010307F1010712DC306804921DB20368E5
:10418000A1B2D3F808B0019BD847049A3BB224B23D
:1041900042449A4592B21FFA84FBE0DCD1E73068D2
:1041A0000492036859469C68019BA047049A3BB25D
:1041B00042449A4592B2D2DC07B0BDE8F08F306835
:1041C0000491036852469C68019BA04704993BB246
:1041D00049449B4589B295DC07B0BDE8F08F9C420D
:1041E0000ADC3068019D04681095E4689BB2A4461F
:1041F00007B0BDE8F04F604799B22346F1E7006889
:1042000065450468C4BF3A46AFB2019D1095246964
:104210003B46A44607B0BDE8F04F60472DE9F043A8
:1042200083B00446BDF92870DDF82C8000928946E1
:104230001E46CDF804801546FFF71AFF33463A466E
:1042400049462046CDE90078FFF712FF4B46494624
:104250002A462046CDE90078FFF70AFF33462A4672
:1042600031462046CDE90A7803B0BDE8F043FFF7B8
:10427000FFBE00BF2DE9F04F8BB01546149A07938F
:104280001E4651EA0503CDE9042076D4002E74DDE4
:104290004FEA460ACDE90815CAF1030A00270FFACA
:1042A0008AFABB468CB21FFA85F8B5B21FFA87F9B5
:1042B000A8EB05020395A4EB09034544002E12B2B6
:1042C0002DB21BB212DD049905980692CDE900517A
:1042D0001946FFF7CDFE09EB0403049901911BB2C7
:1042E000069A059800951946FFF7C2FE039BA8EBB6
:1042F0000902E31A09EB0805BBF1000F1BB212B269
:104300002DB214DD0499DDF814B00692CDE9005108
:1043100058461946FFF7ACFE039B049901912344CC
:104320001BB2069A009519465846FFF7A1FEB3B294
:10433000A9EB0300591E1FFA8AF303F10A0202EBEC
:1043400080020633BAF1000F03EB890307F101077E
:104350000FFA82FA14DB0EB20FFA87FBB345A4DD25
:10436000DDE90895049B14930598079B2A46494666
:104370000BB0BDE8F04FFFF7A5BC0BB0BDE8F08F68
:104380000FFA87FBB3450FFA83FA8EDDE8E700BF2B
:104390002DE9F04F89B01646A1F184028246DDF87E
:1043A00048909DF85000382A1FD8DFE802F0B11E6F
:1043B0001E1E1E1E1E1E1E1E1E1E1E1E1E1E1E1E1D
:1043C000B31E1E1E1E1EB51E1E1E1E1E1E1EB71E48
:1043D0001E1E1E1E1E1E1E1E1E1EB91E1E1E1E1D63
:1043E000BD1E1E1E1E1EBB00E621BAF9342095B26A
:1043F000002D5FD052074FEAD50756D0BAF93640A4
:10440000DAF83020013711FB04F1002C07FB012200
:1044100050DD99B21FFA86FC3A440026CDF818C048
:10442000BB4607910290079B069C019203EB06088E
:10443000A2EB0B03CDE904B61FFA88F89B461BF8E4
:10444000016B15B3029BCDF80CB004F10807BFB2A5
:10445000002B41D101E0002D4CD016F0010F214678
:104460004FEA56064B46424606D0DAF80000D0F82E
:1044700000C0DCF808B0D8470134A4B2013DBC420A
:10448000ADB2E8D1DDF80CB03C46019B9B45D6D1DE
:10449000DDE904B61A46BAF936300136B3425A4459
:1044A00008DDBAF93450ADB2BDE7BAF93620002ABA
:1044B00000DD1FBB09B0BDE8F08F0268139BD2F886
:1044C00008B04246D8470134A4B2013DBC42ADB267
:1044D0004FEA5606D6D06DB116F0010FDAF800009B
:1044E0004B4642462146E8D0D0F800C0DCF808B080
:1044F000D847E8E7DDF80CB00025C6E711FB02F469
:1045000099B2DAF830301FFA86FC07FB043283E7F1
:104510008E216AE7992168E79A2166E7842164E79A
:10452000F82162E7812160E794215EE72DE9F043FD
:104530000F4685B019789DF83080A9B31E46044611
:1045400091463D4623E0BCF1010F1DD9B4F934304A
:10455000B4F904202B449A4207DC94F93930E28EF6
:1045600013444B443D460FFA83F9D4E90F3C2A46E5
:104570000093CDE901C84B46FFF70AFF94F93830A4
:10458000A28E13442B441DB216F8011F61B101F134
:104590003E0C0A2920465FFA8CFCD4D116F8011F84
:1045A000B4F904500029F2D105B0BDE8F08300BF92
:1045B000C16370472DE9F04F4F683B6893B0002B03
:1045C00000F0C3800D688A46002D00F0BE80B1F96E
:1045D0000E208346B1F90A00B7F90610131A8B4270
:1045E000C0F2B3802B78002B00F039812E461C4698
:1045F0004FF0010C0A2C16F8014F04BF0CF1010C0E
:104600001FFA8CFC002CF5D19AF81840BAF91C60FE
:1046100014F0300E80B200F01681013211FB0CFE56
:10462000121A0CF1FF3C1CFB06FCA2EB0E02A2EBE3
:104630000C020FFA82FCBCF1000F92B2C0F285802E
:1046400014F0100F18BFCCF34F0202440E441FFAAF
:1046500082FCB2B20C92BAF90860BAF80C200A9641
:104660000132B6B2B7F90400921B92B2C0F302074E
:104670000D92C0F3CC02002F18BF0132BAF81A70A5
:10468000099780B204F00107E6460B978446019231
:104690000846002B00F0E6800199A94698460027BD
:1046A00007E019F8018F92B2B8F1000F00F0CE8048
:1046B0001746B8F10A0F07F10102F2D11CFB07F20D
:1046C000013F019192B2BFB20D998A1A099911FB6B
:1046D00007F7D21B17B2002F92B236DB0B990029D5
:1046E00040F0AF80A10754BF921906EB670212B2E7
:1046F0000A2B00F0BB800999CDE90E460CEB0107AF
:10470000019913B3A3F18404382C22D8DFE804F014
:104710009721212121212121212121212121212113
:104720002121A32121212121952121212121212183
:104730009321212121212121212121219121212187
:104740002120A521212121218F0013B0BDE8F08F68
:10475000E62300FB03F3002801FB03F392B254DDD0
:10476000002952D05C18DAF8043007901B680892D0
:104770002344CDE905EC184600260B461095324639
:10478000119701460598069D089C039300EB0208CB
:10479000A1EB030C1FFA88F867460492029117F800
:1047A000016B0DB304F108091FFA89F9019700E0C4
:1047B000CDB1DBF8000003689F68F307214658BFBE
:1047C000214604F101044CBFDAF81030DAF8143055
:1047D0004246A4B258BF4246B847013D4C45ADB22F
:1047E0004FEA5606E4D1019F029B9F42D7D119465A
:1047F000DDE903320798013282421944C2D1DDE972
:1048000005EC109D089A119F194615F8013F3A448E
:104810000A2B12B27FF475AFDDE90E4601912B46EB
:104820000C9A5B78724401351FFA82FE31E78123CE
:104830008FE7F8238DE784238BE79A2389E78E237C
:1048400087E70A9A54E77246F446F9E61CFB02F23F
:10485000019192B238E799237BE7942379E74FF0EF
:10486000010CD1E64FF6FF771A462DE72B46D7E726
:104870002DE9F0410B78B0F90A40B0F90C50067AF6
:10488000002B3DD04FEA431E4FF0000C04E00CF12A
:10489000200CE645587033D04B6813F80C20634465
:1048A00002F04B020A2A5878F1D100F040029046FB
:1048B00046B3671C26D01AB900F0670040F0050027
:1048C000B3F90870A74200F0DF0212DCB3F90C70F4
:1048D000A7420EDBB3F90A70AF420ADCB3F90E70DF
:1048E000AF4206DBB8F1000F23D100F0DB0242F04B
:1048F00022020CF1200C42F04000E6455870CBD16A
:10490000BDE8F081B8F1000FC1D0870606D440F0B1
:10491000100040F0010000F0B900B8E7870744BF7D
:1049200040F0800000F0400240F00800002AF2D081
:10493000EFE742F02002DCE70B7863B32DE9F047A4
:104940000F4681464FEA4318002501E0A84520D0D4
:104950007C68665D2C4406F00303022B94F801A0EA
:1049600005F12005F2D116F0200F224639464846BF
:1049700001D0636898473207E8D53306E6D51AF0C8
:10498000410F2246E2D06368394648469847A84519
:10499000DED1BDE8F08770472DE9F04F89B0984629
:1049A0009BB2139D0393013BBDF948B000921EB228
:1049B00004962B6801931FFA8BF7049B04468A46E2
:1049C000914696B2FFF754FB0697013F3FB205961A
:1049D0000097013636B26B68019332465346514612
:1049E0002046FFF745FBCDF800B0AB6801931FFAF6
:1049F0008AF05A464346514607902046FFF738FB57
:104A00000097EB6801934A46434641462046FFF72C
:104A10002FFB079A0096511C039A2B690193A2F170
:104A2000020A0FFA81FB0FFA8AFA534632465946B8
:104A30002046FFF71DFB06980599A0F102090FFA21
:104A400089F9CDF8009001F102080FFA88F86B6936
:104A5000019342465B4659462046FFF709FB5946FB
:104A60000097DDF810B0AB6901933A465B462046EB
:104A7000FFF7FEFACDF80090EB69019332465B46F2
:104A800059462046FFF7F4FA079A039BCDF80080B9
:104A900002F1020B0FFA8BFB2A6A0192033B42469A
:104AA000594620461BB2FFF7E3FA06980599C61E41
:104AB00036B200966B6A0193CA1C5B465946204683
:104AC00012B2FFF7D5FACDF80090AB6A01935946C0
:104AD0004A4653462046FFF7CBFAEB6A4246CDE9F9
:104AE000126351465346204609B0BDE8F04FFFF728
:104AF000BFBA00BF2DE9F04F00238BB0CDE90433DE
:104B00005378D6690546D807144640F1D8801A066E
:104B100000F1DE809F07327840F1CC8042F0010244
:104B200032702378627843F0200322F00102237070
:104B300062701F0740F1D380580603D433789A0778
:104B400040F19B80002900F026810B7A13F00203CC
:104B500000F01F81087F8A8ACB8AC70703D50332FA
:104B6000033392B29BB2800704D591F83C00013028
:104B700003449BB2A78A208AB4F812C010443A4476
:104B8000E78A9C443B441FB20FFA82FE80B21FFAB0
:104B90008CFC2081A4F80AC0A4F80CE0E781B1F9EC
:104BA0001A80B84592B29BB240F38F80B1F91810C9
:104BB000714540F38A80717896F80090D6F808E045
:104BC000D6F80480CDF81CE011F0010F14BF0327C4
:104BD000012719F0010FCDF8188006D011F0020F4F
:104BE00000F0CD80CDE906E8C646D21B384481B23C
:104BF000A3EB070800B213B29842894693B2BC44B3
:104C00001FFA8CF2C8BF19460FFA8CFCC8BF4B467E
:104C10000FFA88F9CC4528681FFA88FC9046C4BF73
:104C20006246C446D0F80080CDE900CED8F818809E
:104C3000C0472389726903923B44ADF81030638901
:104C40003B44ADF81230A389DB1BADF81430E38987
:104C5000DB1BADF81630B369029312224FF002133A
:104C600002A92846CDF822308DF82020FFF7A2FCBB
:104C7000237823F0400323703378B4F908B0B4F9F3
:104C80000A70B4F90CA0B4F90E8003F0010C73782B
:104C9000DB074DD5414ECDF800802846404DBCF194
:104CA000000F18BF354653463A4659460195FFF75F
:104CB00073FE2FE0D00738D423F00103637023780C
:104CC00003F02002002A7FF434AF0BB0BDE8F08F70
:104CD000227842F0200222700122A2761AE7B4F96B
:104CE00008C0B4F90C30B4F90A200F69B4F90E60A9
:104CF0009C4502DD61469C460B46B24211DC2868A9
:104D0000B6B20568CDE900679BB2AD6992B21FFAF1
:104D10008CF1A847237823F0200323700BB0BDE863
:104D2000F08F114632460E46E9E722F00102F7E61F
:104D3000D6E90393BCF1000F18BF99463A46534693
:104D400059462846CDE90079FFF792F95346424685
:104D500059462846CDE90089FFF78AF95B4659464E
:104D60003A462846CDE90089FFF782F9CDE9008966
:104D700053463A4651462846FFF77AF9CAE74907AB
:104D80007FF533AFD6F810E0F168CDF81CE006915E
:104D90002BE71A46EEE60B460A46EBE670010100E9
:104DA00040010100002939D0002A37D0002B35D02E
:104DB00030B5944602EB43154FF0030E00248CF8F7
:104DC00000E0CCF81C400CF1200CAC45F7D10B7086
:104DD00002230B72134B4A60C1E903434C61838881
:104DE000013B0B83C38881F81CE0013B40F20220A9
:104DF0004B83039B08850B640B4811236FF07F42A4
:104E0000C1E9084481F82A30FF240F23C1E90D20AD
:104E1000C1E90B2481F83C30002030BD4FF0FF3059
:104E2000704700BFF0F0F00080808000024641B182
:104E30000B7A23F0400343F028030B72002011612A
:104E400070474FF0FF3070472DE9F04F83B04FF0BF
:104E5000000EBDF930C08588C688F2460746BDF908
:104E600034006CF30F0A62F30F0E63F31F4E60F30E
:104E70001F4A002900F094800C46097A11F0020FB5
:104E800000F08E8052EA030B00F18A80013D1FFA88
:104E900085F82DB26545C0F28380013E1FFA86F980
:104EA00036B286427CDBACEB020C0FFA8CFCBCF118
:104EB000090F75DD80B29AB2A0EB020C0FFA8CFCE0
:104EC000BCF1090F6CDD0907C4F814E0C4F818A0A0
:104ED00002D57969A14203D0002003B0BDE8F08F6C
:104EE00093B13868796C0368013A92B2CDE9002138
:104EF000002D4FF00002D3F818A0B5BF414643463D
:104F000000231146D047608B013003B29E4282B22B
:104F10000CDB796C38680368CDE90091002D9E693F
:104F2000B5BF4146434600230021B047B4F91410F1
:104F3000C1B10139B4F91620B4F91A00D7F844C048
:104F40008BB209044ABF19460021002382422EDC9D
:104F500086B23868D0F800E0CDE9006C92B2DEF895
:104F60001860B047218B01310BB29D4289B210DB32
:104F7000B4F91620B4F91A30D7F844C09A4212DCBA
:104F800038689DB20668CDE9005C4346B56992B2C7
:104F9000A847237A23F0400343F0200323729BE7C2
:104FA0004FF0FF3099E710461A460346E8E71646E9
:104FB00002463046CCE700BF41B10B7A980705D5D1
:104FC00043F020030A610B72002070474FF0FF305E
:104FD000704700BF41B10B7A980705D543F06003D5
:104FE000CA620B72002070474FF0FF30704700BF5D
:104FF00041B10B7A980705D543F060030A630B7241
:10500000002070474FF0FF30704700BF41B10B7A6E
:10501000980705D543F060030A620B7200207047C1
:105020004FF0FF30704700BFB9B10B7A980714D525
:1050300043F0600008724A62B2F9062091F83CC061
:10504000501C844507DC23F04003023243F0200368
:1050500081F83C200B72002070474FF0FF30704702
:1050600059B10B7A980708D523F0400343F0200389
:1050700081F83C200B72002070474FF0FF307047E2
:1050800029B10B7A9B0702D5B1F9140070474FF094
:10509000FF30704729B10B7A9B0702D5B1F9160092
:1050A00070474FF0FF30704729B10B7A9B0702D54C
:1050B000B1F9180070474FF0FF30704729B10B7AF3
:1050C0009B0702D5B1F91A0070474FF0FF307047C7
:1050D0002DE9F04F00238BB0CDE90433002979D0BE
:1050E0000B7A0C46990775D5227FB4F91480B4F970
:1050F00016A0B4F91870D20706461FFA88F91FFAED
:105100008AF5BBB256D47269D6F800B0A2420CBF81
:10511000D4E90B20D4E90D20CDE9062094F83C20F9
:10512000DBF800E0013A2A441FFA82FCB84512B2CB
:10513000CABF194649464B465245BCBF6246AC46BB
:10514000CDE900C0A8BF2A465846DEF818B0D847B7
:1051500094F83C30ADF812A0013B2B44ADF816306A
:10516000636A0393236A029394F82A308DF82030FF
:1051700094F92830ADF8223002A994F92930ADF81D
:105180002430304609F10309ADF81090ADF81470E1
:10519000FFF710FA94F83C2010492A4412B2CDE9E6
:1051A000002130463B464146FEF762FF00200BB02F
:1051B000BDE8F08F09F1030805F1030ADF1E1FFAAD
:1051C00088F91FFA8AF5BBB20FFA88F80FFA8AFA43
:1051D0003FB298E74FF0FF30E9E700BFA0A0A00082
:1051E0002DE9F0430B7AB1F91460B1F91620B1F949
:1051F00018800C4623F0200121721907B4F91A50C7
:1052000083B007464DD5217F11F0010F1FFA82F9B7
:105210002FD188075FD44645D4F810C002DD33464D
:1052200046469846AA423868ADB24A46C4BFA94627
:105230001546B1B20668CDE9005C1FFA88F3B5697E
:105240004A46A84725788DB16D0100236268D15C7C
:1052500001F0030002281A4403F1200304D10807D7
:1052600044BF41F0600111709D42EFD103B0BDE831
:10527000F0835B06CDD4214B009531460193434624
:10528000FFF78AFB033609F10302A8F10308033D87
:105290001FFA82F9217F36B20FFA88F82DB212B2C6
:1052A000B7E74645CABF41463146B046AE42D0F8A0
:1052B00044C002DD33462E461D463868ADB2046850
:1052C000CDE9005C1FFA88F3A469B2B289B2A047A5
:1052D00003B0BDE8F08321463846FFF7F9FE237A94
:1052E00094F83C20590605D401324A441FFA82F949
:1052F00012B290E723F040032372B7E7A001010048
:105300002DE9F04390F84830DD0783B0044605D519
:1053100090F8483003F0FE0380F84830D4E90435B3
:10532000AB4223D013B3C4E905352A7F900713D5C8
:105330002A7A110710D5B5F91410B3F91420914247
:1053400005D1B5F91810B3F91820914250D029466B
:105350002046FFF7BDFE63691A7A22F040021A72F6
:105360006269137A43F028031372656925B12B7AB9
:105370009A0635D41B0702D403B0BDE8F08320465B
:105380002946FFF775FADFF884902046FFF7D4FA34
:1053900000240223C9F8044089F800302B78002B40
:1053A000EAD04FEA431801AE274601E04445E3D076
:1053B0006B681A1901921B5D03F00303022B04F1C1
:1053C0002004F3D1937E002BF0D0138BA9F8013089
:1053D000C9F804602B6C48469847019B9F76E5E727
:1053E00029462046FFF7FCFE2B7A1B07C4D5C6E7EB
:1053F000B5F91610B3F916209142A8D1B5F91A10D3
:10540000B3F91A209142A2D1A6E700BFC00600203E
:10541000002939D0F0B50B7A1D0783B00C4630D582
:1054200023F00803B1F914102372B4F91830B4F959
:105430001620B4F91AC0D0F844E09942064602DDBD
:10544000084619460346624502DD10466246844618
:1054500030681FFA8CF50768CDE9005E9BB2BD6924
:1054600092B289B2A8477369A3420AD01A7A110787
:1054700007D522F040021A727269137A43F02003B2
:105480001372002003B0F0BD4FF0FF30704700BF33
:1054900000296CD0F0B543698B4283B005460C46B9
:1054A00032D00B7A180758D523F00803B1F914103D
:1054B0002372B4F91830B4F91620B4F91A00D5F8EB
:1054C00044C0994202DD0E4619463346824202DD4F
:1054D00016460246304686B228680768CDE9006C59
:1054E0009BB2BE6992B289B2B0476B699C4234D01C
:1054F0001A7A110731D522F040021A726A69137ABA
:1055000043F02003137228E08369EBB11A7A16077F
:105510001AD5B3F91410B4F9142091420BDCB3F985
:105520001610B4F91620914205DCB3F91810B4F93D
:105530001820914214DA21462846FFF769FFAB692B
:105540002B61002003B0F0BD237A23F008032372FF
:105550006A69137A43F020031372002003B0F0BD90
:10556000B3F91A10B4F91A209142E9DAE3E74FF0DF
:10557000FF3070472DE9F0410878BDF91870BDF98A
:105580001C60BDF92050BDF92440D1F804C00028AA
:1055900041D098460CEB401E03E00CF1200CF44582
:1055A00039D09CF8000000F003000328F5D100205A
:1055B00010700B699360CB6853600B691361C96805
:1055C000D160DFF860E0506101215170C2F818E04D
:1055D0008CF818104FF0FF31CCE902119CF8001044
:1055E000ACF8107021F0010363F035038CF8003043
:1055F0000B4BACF81260ACF814508CF801008CF82E
:105600001A00ACF816408CF81980CCF81C20CCF8A5
:105610000430BDE8F0814FF0FF30BDE8F08100BFFD
:10562000F54A00002001010008784968C0B101EB8B
:10563000401C02E02031614512D0087800F00300E0
:105640000228F7D1087E0128F4D1487E9042F1D19A
:10565000CA6993600B7843F0600300200B707047B9
:105660004FF0FF30704700BF08784968C0B101EBC8
:10567000401C02E02031614512D0087800F00300A0
:105680000228F7D1087E0128F4D1487E9042F1D15A
:10569000CA6993610B7843F0600300200B70704778
:1056A0004FF0FF30704700BF08784968C0B101EB88
:1056B000401C02E02031614512D0087800F0030060
:1056C0000228F7D1087E0128F4D1487E9042F1D11A
:1056D000CA6953610B7843F0600300200B70704778
:1056E0004FF0FF30704700BFF0B50878BDF9145097
:1056F000BDF918404968BDF91C609E46BDF92030CF
:1057000040B301EB401002E02031814222D091F8F9
:1057100000C00CF0030CBCF1030FF5D100200127F1
:1057200010601771CB820B784C8223F001034FF08D
:10573000FF3443F04A03C1E902440B70074B81F880
:1057400018C00D828E824870887681F819E0CA618F
:105750004B60F0BD4FF0FF30F0BD00BF113E0000C8
:1057600008784B68A8B103EB401C02E02033634586
:105770000FD0197801F003000228F7D1187E032812
:10578000F4D1587E9042F1D141F0680119700020A7
:1057900070474FF0FF30704708784968D0B101EB8F
:1057A000401C02E02031614514D0087800F003006D
:1057B0000228F7D1087E0328F4D1487E9042F1D127
:1057C000CA690120107113600B7843F06003002058
:1057D0000B7070474FF0FF30704700BF0B4601461B
:1057E000184600F037B900F015B800F013B80128DA
:1057F00038BF012010B50446204600F02FF800B154
:1058000010BD00F009F808B900F00EF88047F3E782
:10581000FFF7EDBF00F02AB8024B1868BFF35B8FAB
:10582000704700BFF405002008B5062000F020FCFA
:10583000012002F063F8000008B5064B044613B1DE
:105840000021AFF30080044B1B6803B1984720464A
:1058500002F054F80000000008080020024B014646
:10586000186800F02DB800BF64000020024B01460C
:10587000186800F0BBBC00BF6400002070B50F4E7C
:105880000C463168054611B900F042FC30602146F3
:10589000284600F03DFC431C03D14FF0FF34204666
:1058A00070BDC41C24F00304A042F8D0211A28467D
:1058B00000F02EFC0130F2D1EFE700BFCC06002053
:1058C0002DE9F843CD1C25F0030508350C2D38BF14
:1058D0000C25002D064601DBA94204D90C233360B8
:1058E0000020BDE8F883DFF8D48000F069F8D8F82C
:1058F00000301C4644BB29463046FFF7BFFF431C1F
:10590000044658D1D8F800402746002F43D1002C38
:105910004BD023683946304604EB030900F0F8FB0E
:10592000814542D121686D1A29463046FFF7A6FF0E
:1059300001303AD023682B442360D8F800305A68ED
:1059400062BBC8F800700FE02268521B20D40B2AFB
:1059500017D96119A342256018BF5960636808BF51
:10596000C8F8001062514B60304600F02FF804F187
:105970000B00231D20F00700C21A1CBF1B1AA350E6
:10598000AFE76268A3420CBFC8F800205A60EBE79B
:1059900023466468AEE73C467F68B6E71A465B6814
:1059A000A342FBD100235360DEE70C233360304673
:1059B00000F00CF894E70560D6E700BFC8060020A9
:1059C000014800F0F2BB00BF40080020014800F091
:1059D000EDBB00BF40080020164B10B51C68236BC0
:1059E000B3B91820FFF73AFF0246206320B9124BE3
:1059F0001248522100F0DCFB1149124BC0E90013A0
:105A0000114B83600B23838100210120C2E9040133
:105A1000216B0E480B694C690D4A584302FB040088
:105A2000A3FB0232013340EB0200C1E9043020F055
:105A3000004010BD64000020F02501000726010091
:105A40000E33CDAB34126DE6ECDE05002DF451586B
:105A50002D7F954C10B504460448134620B10A46E4
:105A600002202146AFF3008010BD00BF00000000FF
:105A7000B1F90C202DE9F041170705460C4656D424
:105A80004B68002B02DC0B6C002B3DDDE66A002E20
:105A90003AD0002312F480522F68216A2B6025D05F
:105AA000626DA389580705D56368D21A636B0BB181
:105AB000236CD21A216AE66A00232846B047411CAB
:105AC00024D00023636023692360A389DA0400D50E
:105AD0006065616B2F60B9B104F14403994202D053
