:1000000000000120612300005F2300005F23000047
:100010005F2300005F2300005F230000000000005A
:100020000000000000000000000000007934000023
:100030005F230000000000000D34000005340000C4
:100040005F2300005F2300005F2300005F230000A8
:100050005F2300005F2300005F2300005F23000098
:100060005F2300005F2300005F2300005F23000088
:100070005F2300005F2300005F2300005F23000078
:10008000ED3100000932000025320000413200004D
:100090005D3200007D3200009D320000BD32000064
:1000A000691400005F2300005F2300005F2300004D
:1000B0005F2300005F2300005F2300005F23000038
:1000C0005F2300005F2300005F230000C91A0000C7
:1000D000ED1A0000111B0000351B0000591B000029
:1000E000811B00000348044B834202D0034B03B141
:1000F000184770479800002098000020000000007A
:100100000548064B1B1AD90F01EBA301491002D079
:10011000034B03B118477047980000209800002057
:100120000000000010B5064C237843B9FFF7DAFF52
:10013000044B13B10448AFF300800123237010BDBA
:100140000E08002000000000B0F8000008B5054BC4
:100150001BB105490548AFF30080BDE80840FFF733
:10016000CFBF00BF00000000F4070020B0F800007F
:100170007047000008B50121014804F081FF08BD67
:10018000506A000008B50221014804F079FF08BD5B
:10019000506A000000B583B0084804F071FF01A95F
:1001A000074804F07FFF0199064B1960064B196060
:1001B000064804F065FF03B05DF804FB546A0000D4
:1001C000786A00000800002004000020806A000017
:1001D0002DE9F043ADF2FC6D26234FF4E132724974
:1001E0000DF5DC6002F0F6F9704E01220DF5DC61D0
:1001F000304602F0D5FF63216D4804F041FF6D4C9D
:10020000CDF8D8460F278DF8DC76CDF8D0460925F5
:100210008DF8D45623681B68022239462046984739
:1002200023681B680222294620469847624CCDF875
:10023000C84640F20621ADF8CC1623681B684FF47F
:10024000817220469847CDF8C0464FF4A063ADF8C0
:10025000C4364AF28003009301230DF5D862574952
:100260000DF2746001F0BAFD55490DF2746001F0B1
:100270008FFFCDF86C4640F20151ADF8701623683F
:100280001B68112220469847CDF8644640F205319C
:10029000ADF8681623681B68112220469847CDF8F0
:1002A0005C464FF48071ADF8601623681B6802222B
:1002B00020469847CDF8544640F20753ADF85836DB
:1002C000CDF84C4640F20733ADF850360024019487
:1002D0003C4B00930DF24C630DF254620DF27461CD
:1002E0000DF5A66000F02CFC01220DF5DC61304616
:1002F00002F048FF01220DF5DC61304602F050FFAC
:1003000001220DF5DC61304602F058FF0DF5A661C3
:100310000DF2E44003F0D0F921460DF5A66000F09F
:1003200069FE8023ADF8DE34ADF8DC34264BCDF821
:10033000D83410238DF8E03402238DF8E134234BB8
:1003400000933B4660221E210DF2E44003F0E2F9E7
:100350004FF47F0300930D2360221E210DF2E44031
:1003600003F0BEFAE6AB0AE000221A815A819A81B4
:10037000DA811A825A829A82DA82013D2033002D74
:10038000F2DA092196AB0AE000221A815A819A8199
:10039000DA811A825A829A82DA820139203300295C
:1003A000F2DA092146AB1EE0001000408C06002066
:1003B000506A0000D80500206C0100200020004099
:1003C00000366E0188050020C06A000000FFFF00B3
:1003D00000221A815A819A81DA811A825A829A827B
:1003E000DA82013920330029F2DA78260196009664
:1003F00000231A4635A90DF2E44003F067FFA54B30
:1004000000930A23E6AA35A90DF2E44003F00CFF9D
:10041000A14B1E93282303936E2402940A25019571
:10042000009500231DAA35A90DF2E44004F0E8FA76
:10043000502303930294322701970095012316AAB3
:1004400035A90DF2E44004F0DBFA76238DF857303D
:100450000DF15703002235A90DF2E44004F04AFBE8
:100460000D2004F0A1FB03468C4C07CC18605960AA
:100470009A6022781A73002235A90DF2E44004F044
:1004800039FBDFF840824346002235A90DF2E440F3
:1004900004F050FB082004F087FB0346804A03CA9F
:1004A00018605960012235A90DF2E44004F022FBE6
:1004B0004346012235A90DF2E44004F03BFB0E2037
:1004C00004F072FB0346774C07CC186059609A60C1
:1004D00022889A811A4635A90DF2E44003F0D8FF2C
:1004E000714A35A90DF2E44003F0C4FF6FF07F427A
:1004F00035A90DF2E44003F0AFFF424635A90DF2F5
:10050000E44003F0D3FF102004F04EFB0446DFF874
:10051000B8C1BCE80F0020606160A260E360019692
:10052000009600231A4604A90DF2E44003F0CEFE23
:100530005E4B00932B4646AA04A90DF2E44003F05B
:1005400073FE224604A90DF2E44003F0A1FF4FF42C
:100550007F0204A90DF2E44003F08CFF6FF07F42AC
:1005600004A90DF2E44003F077FF324604A90DF22E
:10057000E44003F0B7FF424604A90DF2E44003F063
:1005800095FF0DF2E44004F001F949490DF5A6602C
:1005900000F030FD474B00932B4696AA24A90DF29C
:1005A000E44003F041FE7E230193462300936A2337
:1005B0003A4624A90DF2E44003F088FE3E4A24A9FD
:1005C0000DF2E44003F03AFF24A90DF2E44003F0F9
:1005D0006FFE002224A90DF2E44003F083FF4FF0E8
:1005E00000084746A2E004A90DF2E44003F060FED3
:1005F0000DF2E44004F0CAF8FFF7CCFD04A90DF2B7
:10060000E44004F08BF90DF2E44004F0BFF86420FC
:1006100002F04AFB97E0B5F5C87F03DA274B1C6868
:100620006442A2E00024A0E04FF47F43012235A9F8
:100630000DF2E44004F03EFA6FF07F43002235A94A
:100640000DF2E44004F036FA642002F02DFB4FF086
:10065000000893E0B0F5167F1ADD194B1E6876424C
:10066000002F00F08B804FF47F43002235A90DF25C
:10067000E44004F01FFA6FF07F43012235A90DF228
:10068000E44004F017FA642002F00EFBB84675E06F
:10069000002673E07501000000FFFF00886A00007B
:1006A000986A0000A06A00008F8FBC0071010000F2
:1006B000B4824600850100001E69D20008000020B7
:1006C0000400002058EF0000B06A0000013B002B3E
:1006D000FCDC424803685B6840F20151984760B90E
:1006E0003E4803689B6801224FF48071984735A902
:1006F0000DF2E44003F0DCFD0127384803685B6835
:1007000040F205319847044660B9344803689B6855
:1007100000224FF48071984735A90DF2E44004F0AF
:10072000FDF827460DF2E44004F030F8B8F1000F70
:1007300009D047B1294803685B6840F201519847E6
:1007400000283FF450AF264C23689B680F212046B9
:100750009847054623689B68092120469847B5F5C8
:10076000167F7FF758AF1F4B1C68B0F5C87FBFF6E8
:1007700071AF1D4B1E68002F7FF456AF24A90DF2F8
:10078000E44003F0BFFEA4B214FA80F5ADB224A990
:100790000DF2E44003F0C0FE1FFA86F919FA80F664
:1007A000B6B224A90DF2E44003F0C0FE14FA80F4BE
:1007B000A4B224A90DF2E44003F0C2FE19FA80F3BA
:1007C0001BB2019324B2009433B22AB224A90DF2D1
:1007D000E44003F07BFD054B79E700BF6C0100208E
:1007E000D80500200800002004000020A086010099
:1007F000FEE7406800F07F407047406870477047F0
:10080000024A0260024A0260704700BF58EB0000D3
:100810002CEB000090F81431012B03D9D0F81031E3
:1008200058887047D0F810311888704790F8143104
:10083000012B03D9D0F8103118887047D0F8103147
:1008400058887047014B0360704700BF84EB00007D
:10085000012800D070474FF6FF739942FAD1064B3A
:1008600080221A805A8084229A80DA8002221A72A8
:1008700001225A729A72EDE78805002010B50446ED
:10088000034B0360082104F07AF9204610BD00BF35
:1008900084EB000010B50446FFF7B2FF4FF48E71F1
:1008A000204604F06CF9204610BD000008B501F0A8
:1008B0007F43934218D07BB9B2F1807F0CD10B0AF1
:1008C00003F478434A0902F4FC621343C1F3C40100
:1008D0000B4343F0807008BD044B054A1A60054B7A
:1008E00054221A60FFF784FF0846F4E7B0000020A6
:1008F000C0EA0000CC0000202DE9F04385B004469A
:100900000D4616461F464FF080720D99FFF7CEFF39
:100910000C4B0293DFF83080CDF8088003902368F9
:1009200002AA0192BDF830200092D3F814903B4601
:10093000324629462046C847CDF8088005B0BDE8B4
:10094000F08300BF18EB000084EB000010B590F8B6
:100950001431032B15D8DFE803F002272E41B2F83B
:1009600000E0D0F810416388647A23449BB290F988
:1009700015C11FFA8CFCA3EB0C031EFA83F3013B99
:1009800013801388D0F81041B4F802C0634502D335
:10099000A3EB0C0313800B88D0F8102152889342EC
:1009A00001D39B1A0B8010BD148890F9153114FAED
:1009B00083F31380E5E7B1F800E0D0F810416388D5
:1009C000647A23449BB290F915C11FFA8CFCA3EB07
:1009D0000C031EFA83F3013B0B80D2E70C8890F9DD
:1009E000153114FA83F30B80CBE700B583B08DF893
:1009F0000710D0F8040103685B6801220DF10701BC
:100A0000984703B05DF804FB10B50346D0F8040125
:100A1000026854688AB2191DA04710BD30B585B070
:100A200004468DF80710D0F80C31186802689568F4
:100A300000229988A847D4F8040103681D6801239F
:100A40000DF10F020DF10701A847D4F80C31186819
:100A50000268946801229988A04705B030BD70B53E
:100A600004460D4680F81411D0F81031997AC90067
:100A700001F00806D0F8180110B103681B68984708
:100A800036212046FFF7CAFF032D08D8DFE805F01E
:100A9000020E131946F0C0012046FFF7A6FFD4F856
:100AA000180110B103685B68984770BD3146204655
:100AB000FFF79BFFF3E746F0A0012046FFF795FF05
:100AC000EDE746F060012046FFF78FFFE7E710B53E
:100AD000044690F815311944CBB249B280F815118B
:100AE000002908DBD0F810215288914209DB9B1ABB
:100AF00080F8153105E0D0F810215288134480F8B1
:100B00001531D4F8180110B103681B6898473721D4
:100B10002046FFF783FF00212046FFF766FFD4F849
:100B20001031597A94F815311944C9B22046FFF7AB
:100B30005CFFD4F8180110B103685B68984710BDDA
:100B400038B504461546434A0260434A0260C0F87D
:100B50000411C0F80851C0F80C31049BC0F81031E2
:100B6000059BC0F81831286803681B684FF4817230
:100B7000A9889847D4F80C311868026815684FF4B2
:100B800081729988A847D4F8083118680268956876
:100B900000229988A8470A2002F086F8D4F8083184
:100BA00018680268956801229988A8474FF49670E2
:100BB00002F07AF811212046FFF730FF962002F06C
:100BC00073F826212046FFF729FF03212046FFF76F
:100BD0000CFF3A212046FFF721FF05212046FFF7B1
:100BE00004FF33212046FFF719FF00212046FFF7BD
:100BF000FCFED4F81031597A2046FFF7F6FE0021AA
:100C00002046FFF7F2FED4F8103199782046FFF71E
:100C1000ECFE00212046FFF7E8FED4F81031D98819
:100C20005A88891AC9B25B7AC91AC9B22046FFF735
:100C3000DCFE00212046FFF712FF002184F8151189
:100C40002046FFF744FF29212046FFF7E7FE204614
:100C500038BD00BF2CEB000058EB00002DE9F84335
:100C600004460E4615461F46BDF8209090F81431F4
:100C7000032B1CD8DFE803F0023C4A5ED0F81011C9
:100C80008A880B88D21A92B20B7AD21A92B2164480
:100C9000B6B2CB8848881B1A9BB2497A5B1A9BB2C2
:100CA0001D44ADB23A4497B24B441FFA83F92A214E
:100CB0002046FFF7B3FE4FF0000884F80480667109
:100CC00084F80680E77104212046FFF79DFE2B2162
:100CD0002046FFF7A3FE84F80480657184F806803F
:100CE00084F8079004212046FFF78EFEBDE8F883C4
:100CF000D0F810311A7A1644B6B25B7A1D44ADB200
:100D00003A4497B24B441FFA83F9D0E7D0F8102148
:100D1000D38851885B1A9BB2517A5B1A9BB21E44EE
:100D2000B6B2127A1544ADB23B449FB24A441FFAA0
:100D300082F9BCE7D0F810114A7A1644B6B28B8813
:100D400008881B1A9BB2097A5B1A9BB21D44ADB28C
:100D50003A4497B24B441FFA83F9A8E730B585B0FF
:100D60000446ADF80E10ADF80C204FF08072194615
:100D7000FFF79CFD054603AA0DF10E012046FFF783
:100D8000E5FDD4F8180110B103681B689847BDF859
:100D90000E10BDF80C2000920B462046FFF75EFFB8
:100DA0002C212046FFF73AFE2B0A237165710221A0
:100DB0002046FFF729FED4F8180110B103685B68DC
:100DC000984705B030BD30B587B00446ADF80E1079
:100DD000ADF80C20ADF80A304FF080720A99FFF799
:100DE00065FD054603AA0DF10E012046FFF7AEFD95
:100DF0000DF116020DF10A012046FFF7A7FDD4F808
:100E0000180110B103681B689847BDF80C200092C8
:100E1000BDF80A30BDF80E102046FFF71FFF2C2149
:100E20002046FFF7FBFDBDF80E00002109E02A0A6D
:100E30004B1C04EB010C8CF80420234402311D717F
:100E40000130BDF80A308342F1DA2046FFF7DCFDBD
:100E5000D4F8180110B103685B68984707B030BD3B
:100E600030B587B00446ADF80E10ADF80C20ADF8E3
:100E70000A304FF080720A99FFF718FD054603AA61
:100E80000DF10E012046FFF761FD0DF10A020DF193
:100E900016012046FFF75AFDD4F8180110B1036877
:100EA0001B689847BDF80E10BDF80A3000930B463A
:100EB000BDF80C202046FFF7D1FE2C212046FFF77D
:100EC000ADFDBDF80C00002109E02A0A4B1C04EB23
:100ED000010C8CF80420234402311D710130BDF84F
:100EE0000A308342F1DA2046FFF78EFDD4F818016C
:100EF00010B103685B68984707B030BD2DE9F04337
:100F000085B005460D9FADF80E10ADF80C20ADF87C
:100F10000A303B681B683846984781463B689B68A7
:100F20003846984703AA0DF10E012846FFF70EFD3B
:100F30000CAA0DF10A012846FFF708FDD5F81801A3
:100F400010B103681B689847BDF830300093BDF8B6
:100F50000A30BDF80C20BDF80E102846FFF77EFEC3
:100F6000BDF80A80BDF80E30A8EB030808F10108AF
:100F7000BDF83030BDF80C209B1A013318FB03F884
:100F80000FFA88F82C212846FFF748FD0026344642
:100F90000AE0080A631C2A19107102342B441971E3
:100FA000B4F5807F11D00136B04514DD3B685B6835
:100FB000384698470146B9F1807FEAD04FF08072F9
:100FC0002846FFF773FC0146E3E721462846FFF772
:100FD0001BFD0024E7E744B9D5F8180110B10368F8
:100FE0005B68984705B0BDE8F08321462846FFF7C7
:100FF0000BFDF1E72DE9F04182B004464FF080721D
:10100000FFF754FC064694F9151189B2494209B21A
:101010002046FFF75CFDD4F8180110B103681B6887
:101020009847D4F8102113885288013B013A92B2B4
:1010300000929BB2002211462046FFF70FFED4F823
:1010400010311F885B8817FB03F73FB22C21204625
:10105000FFF7E4FCC6F30728F6B20025294600E0B6
:101060000135AF420EDB4B1C621882F8048002315E
:1010700023441E71B1F5807FF2D12046FFF7C4FCF6
:101080000021EDE741B9D4F8180110B103685B689D
:10109000984702B0BDE8F0812046FFF7B5FCF2E7C3
:1010A00008B54FF6FF710120FFF7D2FB08BDFEE740
:1010B000172904D8343100EB41008088704708B507
:1010C000034B044A1A60044B40221A60FFF7EFFFFB
:1010D000B400002098EB0000D000002070B504465A
:1010E0000D4603681E699B689847024629462046BC
:1010F000B04770BD08B507EE902AF8EE677A9FED0D
:10110000167A67EE877A343100EB41008388013B21
:10111000072B19D8DFE803F00409180E1818181364
:101120009FED0E7A87EE870A08BD9FED0D7A87EE58
:10113000870AF9E79FED0B7A87EE870AF4E79FEDC0
:101140000A7A87EE870AEFE7084B094A1A60094BCB
:1011500064221A60FFF7ABFF3333534000007F4334
:1011600000C07F4400F07F4500FC7F46B4000020B3
:1011700098EB0000D0000020024A0260024A0260A0
:10118000704700BF18EC0000F4EB000008B5172909
:101190000AD801F1340300EB430082800D290BD9FA
:1011A0000F2916D83F2308E00B4B0C4A1A600C4B52
:1011B0002E221A60FFF77BFF2D235B1AC3F3C701B2
:1011C00003F00703032243EA0121064800F01EFB57
:1011D00008BD5923F1E700BFB400002098EB0000E0
:1011E000D00000206C01002010B50446044B0360C1
:1011F000044B0360A02103F0C2FC204610BD00BFD9
:1012000018EC0000F4EB0000054B1B793BB1002308
:10121000034A137100E00133B3F57A7FFBDB7047BB
:101220000000244210B50446124B0360124B0360C9
:10123000FFF7EAFF002309E0104A991D42F8213028
:1012400052F8210042F821000133DBB2172BF3D909
:101250000022A4F89C20094B09491960596859607B
:10126000C3F83C21C3F84021064B4FF080721A604E
:10127000204610BDF4EB000018EC000000200140F7
:101280001044204400E100E0012800D070474FF6F0
:10129000FF739942FAD110B5044C2046FFF7C2FF04
:1012A000034A0449204603F065FC10BDD805002020
:1012B000000000207911000038B505460C46FFF704
:1012C000A3FF1C4A536823F030035360611E0729B3
:1012D00027D8DFE801F0040B26142626261D154B1F
:1012E0005A685A600123A5F89C3038BD114A5368EA
:1012F00043F0100353600223A5F89C30F5E70D4A34
:10130000536843F0200353600423A5F89C30ECE7B6
:10131000084A536843F0300353600823A5F89C3013
:10132000E3E7054B054A1A60054BC5221A60FFF733
:10133000BEFE00BF00200140B400002098EB00007A
:10134000D000002010B517292CD80C46B0F89C20EE
:1013500001F1340300EB430399888A422AD0FFF756
:10136000ABFF164B5A6822F4F8125A605A6842EAE8
:1013700004425A601A6822F4C0221A601A681A607D
:101380001A6842F003021A600D4B93F84030002BAC
:10139000FAD1263403F1804303F5903353F8240047
:1013A00080B210BD074B084A1A60084B45221A60EC
:1013B000FFF77DFEFFF728FFD3E700BF00200140C5
:1013C00000002442B400002098EB0000D000002070
:1013D00038B505460C460B290ED94C08063C00EBE7
:1013E000840043683BB104F126011E4A52F82110E3
:1013F00089B2A0B2984738BDFFF706FF95F86A207A
:10140000184B063253F8221021F4804143F8221081
:10141000D3F8402122F00E02C3F84021D3F8502126
:1014200042F00E02C3F85021082C16D00A2C16D018
:10143000062C10D000216A6E3AB195F86A30263336
:10144000084850F8230080B29047064A136843F0DA
:1014500003031360CFE70221EDE70121EBE704214D
:10146000E9E700BF0020014008B5034BD3F8541151
:101470000248FFF7ADFF08BD00200140D80500205D
:1014800008B54FF6FF710120FFF7FEFE08BD000012
:10149000002807DB00F01F02400901239340024AA5
:1014A00042F82030704700BF00E100E0FEE7000096
:1014B00008B50B0A5A1ED2B2092A0CD8C9B207299C
:1014C00009D8013B084A52F8233013F821000038AC
:1014D00018BF012008BD054B054A1A60054B332291
:1014E0001A60FFF7E3FF00BF0C000020B8000020E7
:1014F00034EC0000D400002010B50B0A03F1FF3CCF
:101500005FFA8CFCBCF1090F2AD85FFA81FEBEF1AC
:10151000070F25D8013B00EB030C9CF8FEC34CFAE7
:1015200001FC1CF0010F40D0184490F8080440FA68
:1015300001F111F0010F2ED0D2B13D4A52F8230033
:101540004FEA8E0E0EF180014FF0000C00F801C042
:1015500052F823300EF1400E012203F80E2023E052
:10156000344B354A1A60354B3A221A60FFF79EFF1A
:101570002F4A52F823004FEA8E0E0EF140014FF031
:10158000000C00F801C052F823300EF1800E012249
:1015900003F80E2008E0264951F823104FEA8E0385
:1015A000803382F00102CA5410BD00EB030C9CF89A
:1015B000F4C34CFA01FC1CF0010F30D0184490F831
:1015C000120440FA01F111F0010F20D07AB118494C
:1015D0004FEA8E0E0EF14000012251F823402254B2
:1015E00051F823300EF1800E03F80E20DCE710498D
:1015F0004FEA8E0E0EF18000002251F82340225453
:1016000051F823300EF1400E03F80E20CCE70849C4
:1016100051F823104FEA8E038033CA54C4E70449BB
:1016200051F823104FEA8E034033CA54BCE700BF81
:101630000C000020B800002034EC0000D400002092
:1016400008B50B0A5A1ED2B2092A11D85FFA81FCDA
:10165000BCF1070F0CD8013B094A52F8233013F8AC
:101660002C2003689B68B2FA82F25209984708BDA1
:10167000044B054A1A60054B5E221A60FFF716FFFD
:101680000C000020B800002034EC0000D400002042
:1016900010B5080A431EDBB2052B18D8C9B20729BA
:1016A00015D8421E0E4B890001F5607C4FF0000EEC
:1016B00053F8224004F80CE053F8223001F5507141
:1016C00001225A54223040B2FFF7E2FE10BD054B12
:1016D000054A1A60054B90221A60FFF7E7FE00BF2B
:1016E0000C000020B800002034EC0000D4000020E2
:1016F00008B50B0A5A1ED2B2052A0CD8C9B207295E
:1017000009D8013B084A52F82330890001F550718D
:1017100000225A5408BD054B054A1A60054B9A220F
:101720001A60FFF7C3FE00BF0C000020B8000020C5
:1017300034EC0000D400002010B50446836813B1D7
:10174000032201469847204610BD000070B50646AA
:101750000546084B45F8043B00F5417403E0103C96
:101760002046FFF7E9FFA542F9D1034B336030462D
:1017700070BD00BFC0EC000090EC000010B5044646
:10178000FFF7E4FF40F21C41204603F0F8F9204641
:1017900010BD000000B50F4B036084460E4B4CF8A3
:1017A000043B4FF0050E0CE000221A605A609A606C
:1017B000DA60013910330029F6DA0EF1FF3E0CF140
:1017C000800CBEF1000F02DB63460721F3E75DF8F2
:1017D00004FB00BF90EC0000C0EC0000012800D02A
:1017E00070474FF6FF739942FAD110B5044C20466A
:1017F000FFF7D0FF034A0449204603F0BBF910BDB0
:101800006C010020000000204D17000010B50B0AED
:10181000581EC0B2092815D8C9B2072912D8013BF1
:101820000C48890001F5A07C02F0010E50F823401D
:1018300004F80CE050F8233001F5C071C2F3400207
:101840005A5410BD044B054A1A60054BAA221A606F
:10185000FFF72CFE0C000020B800002034EC000044
:10186000D40000202DE9F8430E4614460B0ACAB2F4
:10187000591EC9B2092900F290800546072A00F2D4
:101880008C80013B00EB030C9CF8FE030121B1406E
:1018900020EA01008CF8FE039CF8F40320EA010022
:1018A0008CF8F4039CF8080420EA01008CF8080482
:1018B0009CF8120420EA01008CF812043F4F57F8FC
:1018C0002300920002F180084FF0000C00F808C0DD
:1018D00057F8230002F1C00E00F80EC057F823009D
:1018E00002F1400900F809C014F0020F04D057F8C3
:1018F0002300012700F8087014F0040F05D0EF183A
:1019000097F8FE03084387F8FE0314F0080F0BD086
:10191000EF1897F8F403084387F8F403274850F8C2
:101920002300012700F8097014F0100F0FD0EF18F2
:1019300097F80804084387F808042048012750F85E
:10194000232002F80E7050F8230000F8097014F0FC
:10195000200F0BD0E81890F812240A4380F81224C4
:10196000164A52F82330012203F80E2014F0C00F5B
:101970001BD114F4807F05D02B689B68012231466F
:101980002846984714F4007F05D02B689B680022F6
:10199000314628469847BDE8F883094B094A1A6042
:1019A000094BB2221A60FFF781FD054B054A1A6008
:1019B000054BD4221A60FFF779FD00BF0C00002010
:1019C000B800002034EC0000D400002070B50446BC
:1019D0000D4616460022FFF719FF324629462046DB
:1019E000FFF740FF70BD38B5044600230360436035
:1019F0008360C3608B6833B10D4602229847EB6861
:101A0000E360AB68A360204638BD10B50446836828
:101A10002BB10322014698470023A360E3602046D0
:101A200010BD000070B50D0A6B1EDBB2052B10D87F
:101A30000446CEB2072E0CD80368DB699847013DF7
:101A400006EBC50604EB061000210430FFF7DDFFAE
:101A500070BD044B044A1A60044B88221A60FFF7D9
:101A600025FD00BFB800002034EC0000D4000020A9
:101A700008B5836813B1C368984708BD01F05AFAE6
:101A8000F8B5044616464D1EEF0002EBC50004EB08
:101A900000100430FFF7ECFF3C44344494F8C433A6
:101AA0007BB1084951F82500B30003F5407410F8E4
:101AB0002620D2B2025551F8252003F5607300218B
:101AC000D154F8BD0C00002008B5064BDB89C3F3E8
:101AD0004E0303B908BD5A1ED2B201210248FFF7D6
:101AE000CFFFF7E7004C00406C01002008B5064B23
:101AF000DB8BC3F34E0303B908BD5A1ED2B20221D9
:101B00000248FFF7BDFFF7E7004C00406C010020E2
:101B100008B5064BDB8DC3F34E0303B908BD5A1E4F
:101B2000D2B203210248FFF7ABFFF7E7004C0040B9
:101B30006C01002008B5064BDB8FC3F34E0303B9DD
:101B400008BD5A1ED2B204210248FFF799FFF7E7F9
:101B5000004C00406C01002008B5074BB3F84E3034
:101B6000C3F34E0303B908BD5A1ED2B20521034880
:101B7000FFF786FFF7E700BF004C00406C01002034
:101B800008B5074BB3F85E30C3F34E0303B908BD85
:101B90005A1ED2B206210348FFF772FFF7E700BFD3
:101BA000004C00406C01002082B002460B46EC461F
:101BB000D0E900018CE8030093E8030082E8030009
:101BC0009CE8030083E8030002B0704738B505467F
:101BD0000C46FFF7E9FFAB68A268AA60A360EB6858
:101BE000E268EA60E36038BD10B584B00446684638
:101BF000FFF7F9FE21466846FFF7E8FF6846FFF762
:101C00009BFD204604B010BDF8B50F4619463D0AAD
:101C10006B1EDBB2052B11D80646F8B207280DD88B
:101C2000022A2CD0032A3CD0012A0FD0304B314A53
:101C30001A60314B79221A60FFF738FC2C4B2D4A81
:101C40001A602D4B67221A60FFF730FC6B1E2B4A7F
:101C500052F823C0820002F5407200240CF80240C2
:101C600006EBC303034483F8C443013D00EBC50006
:101C700006EB00100430FFF7B7FF00232FE06B1EC8
:101C80001E4A52F82340820002F540724FF0010CC8
:101C900004F802C006EBC3030344002283F8C42304
:101CA000E3E76B1E154A52F823C0820002F540722A
:101CB0001CF82040E4B20CF8024006EBC3030344D6
:101CC000012283F8C423D0E70C4A52F825409A0039
:101CD00002F560724FF0000C04F802C00133072BCC
:101CE000F2D933689B69394630469847F8BD00BF42
:101CF000B800002034EC0000D40000200C000020CC
:101D000008B54FF6FF710120FFF768FD08BD000020
:101D1000002807DB00F01F02400901239340024A1C
:101D200042F82030704700BF00E100E0FEE700000D
:101D3000064B036003691B8813F0010FFAD1836817
:101D400001221A80024B0360704700BF6CED000057
:101D500040ED000010B50446FFF7EAFF4C21204695
:101D600002F00DFF204610BD012800D0704708B5D5
:101D70004FF6FF73994200D008BD0B4B1A680B4B0E
:101D80001A6007210A4B06E000221A605A609A6026
:101D9000DA60013910330029F6DA064A06490020D4
:101DA00002F0E8FEE8E700BF38000020A8000020AD
:101DB000EC00002000000020BD1D000010B5054C07
:101DC00003E0103C2046FFF7B7FC034B9C42F8D1E0
:101DD00010BD00BF6C010020EC00002010B53B4C92
:101DE00004603B4C04604FF0000C80F804C0437169
:101DF0000123837181608B1DC36001F108030361BE
:101E000001F10C03436101F10E03836101F12A0327
:101E1000C36101F12C03036201F12E0343622D4BD8
:101E20008362A0F82CC00363A0F834C08363A0F8D9
:101E30003CC0BDF80830A0F840304264264B9942BF
:101E400015D0264B99421FD0254B994229D0254BBE
:101E5000994233D140F60123838540F603238386DC
:101E600040F602238387172380F8483010BD40F2E4
:101E70000513838540F2071383864FF483738387AA
:101E8000142380F84830F1E740F20363838540F281
:101E90000563838640F204638387152380F8483006
:101EA000E4E740F20533838540F20733838640F24E
:101EB00006338387162380F84830D7E70A4B0B4A4E
:101EC0001A600B4B68221A60FFF730FF40ED0000EC
:101ED0006CED00006C010020002000400024004058
:101EE00000280040002C0040BC000020E8EC00006E
:101EF000D800002038B504460122818D2E48FFF716
:101F000085FC6379002B4ED002222B4DA18D2846F3
:101F1000FFF7A8FC0122A18E2846FFF777FC637922
:101F2000002B42D00122244DA18E2846FFF79AFCB7
:101F30000122A18F2846FFF769FC6379002B36D078
:101F40000222A18F1C48FFF78DFC636C6279002A86
:101F50002FD04FF48172186801680D689988A847DE
:101F6000A36801221A8063792BB1B4F8403043F49E
:101F70000063A4F84030B4F8403043F48173A4F80F
:101F80004030A1680A8892B213430B80E3690022B3
:101F90001A80A26813889BB223F001039BB21380BE
:101FA0000123237138BD0122AFE70222BBE70122E2
:101FB000C7E70122CFE700BF6C0100202DE9F04107
:101FC00004460F4616461D46037963B163796BB12B
:101FD000A3799BB1636C18680268D2F8088000226C
:101FE0009988C0470AE0FFF785FFEFE7636C186840
:101FF00002685268998890470028F7D1226A002326
:1020000013802269138062691288327011E01A46C7
:10201000F85CA1690880206A008810F0010FFAD0EE
:1020200061690988B154206A008810F0020FFAD063
:1020300001339D42EBDC63794BB1A3797BB1636CD7
:1020400018680268946801229988A04707E0636CC9
:10205000186802685268998890470028F7D028B21B
:10206000BDE8F081F8B504460E46154603795BB12C
:10207000637963B1A37993B1636C18680268976858
:1020800000229988B8470AE0FFF734FFF0E7636C55
:10209000186802685268998890470028F7D1236A27
:1020A000002018802369188008E0325CA3691A8038
:1020B000236A1B8813F0020FFAD001308542F4DC4A
:1020C00063794BB1A3797BB1636C1868026894683B
:1020D00001229988A04707E0636C1868026852687B
:1020E000998890470028F7D028B2F8BD2DE9F04133
:1020F00004460F4616461D46037963B163796BB1FA
:10210000A3799BB1636C18680268D2F8088000223A
:102110009988C0470AE0FFF7EDFEEFE7636C1868A7
:1021200002685268998890470028F7D1226A0023F4
:102130001380226913806269128832700FE0A269ED
:102140001780206A008810F0010FFAD062691288A7
:10215000F254206A008810F0020FFAD001339D4239
:10216000EDDC63794BB1A3797BB1636C18680268CD
:10217000946801229988A04707E0636C1868026898
:102180005268998890470028F7D028B2BDE8F081BE
:1021900038B504460D4603793BB1054B1968B1FBD0
:1021A000F5F1E36889B2198038BDFFF7A3FEF4E7C3
:1021B0003400002038B504460D4603790BB1A571F3
:1021C00038BDFFF797FEFAE738B504460D460379A8
:1021D0003BB1636C1868026894682A469988A047E6
:1021E00038BDFFF787FEF4E700B583B08DF8071020
:1021F000836833B1C3680DF10701984703B05DF8F8
:1022000004FB00F097FE000008B5034B9989C9B2A2
:102210000248FFF7E9FF08BD00100040EC00002075
:1022200008B5034B9989C9B20248FFF7DDFF08BD25
:1022300000140040FC00002008B5034B9989C9B286
:102240000248FFF7D1FF08BD001800400C01002034
:1022500008B5034B9989C9B20248FFF7C5FF08BD0D
:10226000001C00401C01002008B5034B9989C9B22D
:102270000248FFF7B9FF08BD002000402C010020F4
:1022800008B5034B9989C9B20248FFF7ADFF08BDF5
:10229000002400403C01002008B5034B9989C9B2D5
:1022A0000248FFF7A1FF08BD002800404C010020B4
:1022B00008B5034B9989C9B20248FFF795FF08BDDD
:1022C000002C00405C01002038B504460023036068
:1022D00043608360C3608B6833B10D460222984728
:1022E000EB68E360AB68A360204638BD38B50546AF
:1022F0000C46FFF759FCAB68A268AA60A360EB68C4
:10230000E268EA60E36038BD10B584B00446684610
:10231000FFF7DAFF21466846FFF7E8FF6846FFF758
:102320000BFA204604B010BD10B5044690F94830B1
:10233000103B064800EB0310FFF7E6FFE3690122BC
:102340001A8094F94800FFF7E3FC10BDEC00002070
:1023500008B54FF6FF710120FFF706FD08BDFEE747
:1023600008B500F0C1FB124A0AE01068516850F845
:10237000230041F82300013391688B42F5D30C32DE
:102380000C4B9A4201D20023F6E70B4A08E0116891
:10239000002041F82300013351688B42F7D3083203
:1023A000064B9A4201D20023F6E704F08FFA00BFF1
:1023B000B0F80000BCF80000C0F80000C8F8000049
:1023C000002807DB00F01F02400901239340024A66
:1023D00042F82030704700BF00E100E000280CDB2D
:1023E00000F01F024009012393402030034A42F8C5
:1023F0002030BFF34F8FBFF36F8F704700E100E0D5
:10240000FEE70182826813889BB243F001031380C8
:1024100011F0010F05D0826813889BB243F48053FA
:10242000138011F0020F06D0826813889BB223F448
:1024300080539BB2138011F0040F04D0826813887C
:10244000C3F30E03138011F0080F0DD082681388B8
:102450006FEA43436FEA53439BB213808268138849
:102460009BB243F48043138011F0100F0ED08268AA
:1024700013886FEA43436FEA53439BB21380826829
:1024800013889BB223F480439BB2138011F0200F7A
:1024900006D0826813889BB223F400639BB213803A
:1024A00011F0400F05D0826813889BB243F400639B
:1024B0001380826813889BB223F001039BB21380C0
:1024C00070470000C160044B1B68B3FBF1F18368E7
:1024D00089B2D980704700BF340000208368012290
:1024E0005A837047836800225A83704738B5044680
:1024F000114B03600379DBB1A3685A8912F0010F15
:10250000FAD101221A80A17CE37C0C4D002243EA1F
:1025100001212846FFF77AF9A17C237D002243EAB6
:1025200001212846FFF772F9054B2360204638BD8C
:10253000034B0360FAE700BF20EE00006C010020AF
:10254000ECED000010B50446FFF7D0FF182120463F
:1025500002F015FB204610BD012800D0704708B5D9
:102560004FF6FF73994200D008BD0D4B1A680D4B12
:102570001A600D4B0020186058609860D860186190
:1025800058619861D861186258629862D86218637D
:1025900058639863D863054A054902F0EBFAE3E70C
:1025A00038000020AC00002094050020000000202E
:1025B000B525000010B5054C03E0103C2046FFF7A0
:1025C000BBF8034B9C42F8D110BD00BFD4050020DE
:1025D0009405002010B50446074820600748206095
:1025E00000202071A160E2602382A074E074207555
:1025F00000F0F9FD204610BDECED000020EE0000DB
:1026000038B5044683682F4A934240D02E4A9342FD
:1026100044D02E4A934247D02D4A93424AD10923AF
:1026200083740623C37407230375A17CE37C294DBF
:10263000012243EA01212846FFF7E8F8A17C237D27
:10264000012243EA01212846FFF7E0F8A3680125AB
:102650001D80A26813889BB243F080031380A26898
:10266000138903F00E031381A268538B9BB223F0EE
:102670000F039BB253832368DB68218A2046984767
:1026800023681B69E16820469847257138BD0123FE
:1026900083740223C37403230375C6E70223837480
:1026A000C37403230375C0E7032383740222C27437
:1026B0000375BAE7084B094A1A60094B20221A60D1
:1026C000FFF79EFE0010004000140040001800407C
:1026D000001C00406C010020C000002090ED0000B4
:1026E000DC00002010B50446037923B1A368988B61
:1026F00000F0010010BDFFF783FFF7E710B50446B7
:1027000003793BB1A3689A8B12F0010FFAD0988934
:10271000C0B210BDFFF774FFF4E738B504460D46AC
:10272000037933B1A3689A8B12F0020FFAD0DD81DE
:1027300038BDFFF765FFF5E710B5044683682BB198
:102740000322014698470023A360E360204610BDA2
:1027500038B5044603797BB1A368C3F3812400250F
:102760005D8304F11000FFF739FE2946044800EBB1
:102770000410FFF7E1FF38BDFFF742FFECE700BFB1
:102780009405002000B583B08DF80710836833B13D
:10279000C3680DF10701984703B05DF804FB00F032
:1027A000C9FB000008B58189C0F38120044B03EB0D
:1027B0000010836813B1C9B2FFF7E4FF08BD00BF82
:1027C0009405002008B50248FFF7ECFF08BD00BFE4
:1027D0000010004008B50248FFF7E4FF08BD00BF45
:1027E0000014004008B50248FFF7DCFF08BD00BF39
:1027F0000018004008B50248FFF7D4FF08BD00BF2D
:10280000001C004038B50446002303604360836029
:10281000C3608B6833B10D4602229847EB68E360D2
:10282000AB68A360204638BD38B505460C46FFF7B7
:10283000BBF9AB68A268AA60A360EB68E268EA60D3
:10284000E36038BD10B584B004466846FFF7DAFF90
:1028500021466846FFF7E8FF6846FEF76DFF204611
:1028600004B010BD70B504460E46037983B1A56867
:10287000C5F381253146084800EB0510FFF7E2FF5C
:10288000A36801225A8305F11000FFF799FD70BD7E
:10289000FFF7B6FEEBE700BF9405002008B54FF642
:1028A000FF710120FFF758FE08BD000082B00190C3
:1028B000304B5B681AB2C3F30903002B58D012F4F3
:1028C000007F03D06FEA83536FEA9353294A52681B
:1028D00012F4800F35D0274A526802F4E022B2F594
:1028E000A02F26D0244A92ED216AB8EE466AD2ED96
:1028F0001B7AF7EE006A86EE867A9FED206A37EE45
:10290000067AF8EE677A37EE677ADDED017AB8EE8F
:10291000676A07EE903AF8EEE77AC7EE875A76EEE6
:10292000E56AC6EE267AFCEEE77A17EE900A02B068
:102930007047114A92ED226AB8EE466AD2ED1C7ACF
:10294000D7E70C4A526802F4E022B2F5A02F07D074
:10295000094A92ED196AB8EE466AD2ED137AC8E7D1
:10296000054A92ED1A6AB8EE466AD2ED147AC0E7CB
:102970000198DCE700040140001020000000404402
:1029800010B5514B9B6803F00703052B17D8DFE800
:1029900003F003122B3A464A4B4B9B6C13F0010F8A
:1029A00004D04A4B4FF400421A6008E0484B1A68C2
:1029B000464B1A6003E0454B42F2B8421A60424B64
:1029C0009B6803F07003302B69D051D8102B5CD07A
:1029D000202B36D13C4B1B6B13F4004F5AD03D4B90
:1029E0004FF4FA321A6033E0374B1B6B13F4004F8D
:1029F00004D0364B4FF4FA321A60E0E7334B4FF411
:102A000000421A60DBE7304B5B68C3F30243324895
:102A100098402E4C2060FFF749FF2060CFE72B4BFA
:102A20002E4A1A60CBE7284B9B6C13F0020F03D0A1
:102A3000264B2B4A1A60C2E72A4B1A68234B1A60AE
:102A4000BDE72BB9204B9B6C214B1A68214B1A60B8
:102A50001D4B9968C1F302419A68C2F302721B4888
:102A60000368CB4003601B490B68D3400B6010BD6B
:102A7000402B20D0502BEBD1134B9B6C13F0020F4B
:102A80001DD0144B164A1A60E2E7124B42F2B842CC
:102A90001A60DDE70F4B4FF400421A60D8E70A4B8B
:102AA0005B68C3F302430C4898400A4C2060FFF770
:102AB000FDFE2060CCE7074B084A1A60C8E7094BC7
:102AC0001A68044B1A60C3E7000401403800002074
:102AD000A40000203400002060E3160040787D014F
:102AE000404B4C00A000002008B53D4B4FF4B542D0
:102AF0009A813C4AD2F8883043F47003C2F8883097
:102B0000394B80225A61394B5B6813F4807FFAD1CC
:102B1000364B374A1A60354B5B6813F4807FFAD125
:102B2000344B41F230021A615A61334946F65A1366
:102B30000B60324B324A1A60324A538D9BB243F0DB
:102B400008035385938D9BB223F008039BB29385B2
:102B5000CB6843F0B07343F48033CB60002300E0D4
:102B60000133C72B0ADC244A926C12F0020FF7D013
:102B700021490A6D42F002020A65F1E7224B4FF447
:102B800000421A601F4A538D9BB243F001035385E4
:102B9000938D9BB223F001039BB2938502F53742DC
:102BA000D36843F48073D360002300E00133C72B64
:102BB0000ADC114A926C12F0010FF7D00E490A6D2F
:102BC00042F001020A65F1E70B4B4FF480325A6084
:102BD0000E4A9A6000221A60FFF7D2FE08BD00BFBD
:102BE0000048004000ED00E0003004E0000001403B
:102BF00005005A690010014000040140A0000020B7
:102C0000006CDC02004D0040A400002055000010C4
:102C1000FEE70000012800D070474FF6FF7399428D
:102C2000FAD1034B00221A605A609A60F4E700BFA1
:102C30007806002070B5044616460346164A43F847
:102C4000442B002545645D609D6005650F220430BE
:102C500002F039FBE574257502236375A561E56112
:102C600000220023C4E90823A5622686304601F02D
:102C70009BFFE06238B10023636384F83830E3637C
:102C80002364204670BD054B054A1A60054B362269
:102C90001A60FFF7BDFF00BF94EE0000C4000020E3
:102CA0004CEE0000E000002010B50E4B1B68B3B1E5
:102CB0000D490A6849681A6259624FF47A7404FB34
:102CC00000F00A4CA4FB00408009121841F10001F9
:102CD0001A62596201225A7500F084FB10BD00F09F
:102CE0005FFBFBE78406002098000020D34D6210B4
:102CF0002DE9F041214B1B68DC6B00252E462F4649
:102D000015E0216A626A1E4B18685B68884293412D
:102D100016D30023637513E0A06A03689B68984785
:102D200088B9002363750EE0E46B0135ADB2154B35
:102D30009B689D420FDA94F81480637D012BE0D0EC
:102D4000637D032BE8D0637D002BEDD14645EBD2AC
:102D500046462746E8E74FB1084B1B68BB4203D005
:102D6000094B1F6000F014FBBDE8F081074B084AD7
:102D70001A60084BBF221A60FFF74AFF8406002042
:102D8000980000207806002088060020C40000205B
:102D90004CEE0000E000002008B5084A13685168B6
:102DA000013341F1000113605160054B1A689369CA
:102DB00001339361FFF79CFF08BD00BF980000201E
:102DC0008406002008B54430FEF752FE08BD436873
:102DD0007BB10368CB6343680B6403681964436881
:102DE000D9634160012381F83830836801338360FF
:102DF0007047C963096441600160F3E738B531B1D8
:102E000004460D4690F838300BB900230EE0144B01
:102E1000144A1A60144B42221A60FFF7F9FEE06A66
:102E20004FF0A50C00F803C001339BB2208E9842EE
:102E3000F5D81146204600F087FA25750023637502
:102E4000A361E36100200021C4E90801A36200F04E
:102E5000D1FA21460548FFF7BAFF00F0D0FA38BD95
:102E6000C40000204CEE0000E000002078060020A6
:102E70008368012B11D00A6CCB6BD3630A6C1A6484
:102E800003688B420DD043688B420DD0002381F83C
:102E900038308368013B83607047002303604360E0
:102EA000F4E7CB6B0360EEE70B6C4360EEE70000EA
:102EB00090F8383003B9704710B5044600F09AFA1C
:102EC00021460448FFF7D4FF00F099FA00F08AFA8F
:102ED00010BD00BF7806002010B50446074B036004
:102EE000FFF7E6FFE06A08B101F04BFE0023E36262
:102EF00004F14400FEF720FC204610BD94EE0000D3
:102F000010B50446FFF7E8FF5821204601F037FED0
:102F1000204610BD10B5044603689B6898472046BC
:102F2000FFF7C6FF10BD08B54FF6FF710120FFF790
:102F300071FE08BDFEE70000012800D070474FF683
:102F4000FF739942FAD1054B00221A605A609A60C9
:102F5000DA601A745A749A74F0E700BF8C06002085
:102F6000F8B50F461646044678B1194BD8680028C4
:102F70002BD003681D6813460A462146A847F8BDB2
:102F800000253D550D2D1CD00134B4421BDA1048EC
:102F900000680028F4D003685B68984705460C4B2E
:102FA0001B7C002BEDD00A4B58680028E9D0036841
:102FB0009B6829469847074B1B68986801F08AFF71
:102FC000DFE7601CDBE72046D9E70020D7E700BF3A
:102FD0008C06002048000020F0B585B00E4615464E
:102FE000012826D00446022828D0384BD86800286B
:102FF00069D003685F6813460A462146B8471BE05C
:103000000134AC4217DA314B58680028F8D0036815
:103010009B68315D98472D4B5B7C002BF0D0335D76
:103020000A2BEDD1294B586803689B680D219847FE
:10303000E6E70024E5E7284605B0F0BD234B9B6892
:10304000002B3ED0224B93E803000290ADF80C1009
:10305000204B93E8030000908DF8041002AC05E0CB
:103060001A4B9868013403689B68984721780029B7
:10307000F6D1002400E00134AC4215DA134B986815
:103080000028F8D003689B68315D98470F4B9B7C04
:10309000002BF0D0335D0A2BEDD10C4B9868036800
:1030A0009B680D219847E6E76C4605E0074B98685A
:1030B000013403689B68984721780029F6D1284697
:1030C000BAE71046B8E70020B6E700BF8C0600203C
:1030D000A0EE0000A8EE000008B50146064BD86837
:1030E00018B10368DB68984708BD02F099F9092315
:1030F00003604FF0FF30F7E78C06002003460A46D6
:103100000649C86828B110B50168CC691946A047BE
:1031100010BD4FF400535360002070478C06002010
:1031200084461346054AD06830B110B50268146A67
:103130000A466146A04710BD002070478C0600205B
:1031400002280FD908B50146074BD86818B10368A3
:103150005B6A984708BD02F063F9092303604FF0EA
:10316000FF30F7E7012070478C06002008B502F019
:1031700057F9162303604FF0FF3008BD4FF0FF30C2
:103180007047000008B501600274044B186864239E
:1031900001220021406801F097FF08BD480000208F
:1031A00008B541604274044B186864230122002171
:1031B000806801F089FF08BD4800002008B58160E3
:1031C0008274044B1868642301220021C06801F056
:1031D0007BFF08BD4800002008B54FF6FF710120B5
:1031E000FFF7AAFE08BD7047FEE7000008B5054BD3
:1031F0001B8813F4807F02D0FFF706F808BDFFF7A5
:10320000E1FAFBE70010004008B5054B1B8813F4FA
:10321000807F02D0FFF704F808BDFFF7DBFAFBE779
:103220000014004008B5054B1B8813F4807F02D0C2
:10323000FFF702F808BDFFF7D5FAFBE700180040DA
:1032400008B5054B1B8813F4807F02D0FFF700F808
:1032500008BDFFF7CFFAFBE7001C004008B5064B9E
:103260001B8803F4C063B3F5C06F02D0FEF7FCFF08
:1032700008BDFFF7B9FFFBE70020004008B5064B8B
:103280001B8803F4C063B3F5C06F02D0FEF7F8FFEC
:1032900008BDFFF7A9FFFBE70024004008B5064B77
:1032A0001B8803F4C063B3F5C06F02D0FEF7F4FFD0
:1032B00008BDFFF799FFFBE70028004008B5064B63
:1032C0001B8803F4C063B3F5C06F02D0FEF7F0FFB4
:1032D00008BDFFF789FFFBE7002C0040FEE7000078
:1032E00010B50446024B0360FFF7F6FD204610BD03
:1032F000B8EE000010B50446044B0360FFF7ECFD88
:103300005821204601F03BFC204610BDB8EE0000DD
:10331000024B1A68024B1A60704700BF88060020F3
:1033200084060020014B1B68D86A70478406002081
:10333000014B1B68586B704784060020014B1B68CB
:10334000586370478406002038B5038E442B0DD98E
:10335000C46A443BE21842634FF080751564084D1F
:10336000D563506251B10222E25038BD054B064A86
:103370001A60064B49221A60FFF7B0FF0322F3E7F9
:10338000152F0000C8000020E8690000E4000020BC
:10339000024A536843F080535360704700ED00E0E9
:1033A0000E4B1B680E4AA2FB03239B09013B4FF007
:1033B000E0214B6100228A6105230B6106E04FF09A
:1033C000E0231B6913F4803FF9D001328242F6D327
:1033D0004FF0E02300221A61704700BF3800002040
:1033E000D34D621001DF704720BF704708B5FFF76B
:1033F000FBFFFCE7BFF34F8FBFF36F8F7047BFF347
:103400006F8F704708B5FFF7C7FC08BDEFF3098061
:10341000EFF314831EF0100F04BF43F0100320EDF0
:10342000108A20E9F80F03461846FFF787FF044685
:10343000FFF778FF0346E31A0A2BD4BF01230023CA
:10344000DBB2002B01D0FFF749FFFFF761FFFFF769
:103450006FFF03461846B0E8F80F6FF0020E13F046
:10346000100F1CBF2EF0100EB0EC108A83F31488DE
:1034700080F30988704700BF1EF0040F0CBFEFF304
:103480000880EFF309800449C1F800E000F006F875
:103490000149D1F800E07047E800002010B58369C9
:1034A00013F8023C23B1012B41D1FFF721FC3DE091
:1034B000582001F068FB0446C8222149FFF7BAFBF7
:1034C000204B2360002201212046FFF797FC1E4B72
:1034D0001A681E4B1A601E4BE02283F822201D4BF7
:1034E0001B681D4AA2FB03239B09013BB3F1807FAC
:1034F0000AD24FF0E0225361154BE02183F82310EC
:103500000023936107231361144B6FF002021A60CA
:103510000E4B1B685B6B03F1240282F309881B7856
:1035200083F31488BFF36F8FBFF36F8F10BD0C4B05
:103530000C4A1A600C4BFE221A60FFF7CFFE00BF48
:103540003C6A0000B8EE00007806002084060020E7
:1035500000ED00E038000020D34D6210E8000020AC
:10356000C8000020E8690000E40000202DE9F04FC9
:1035700087B00546059318465B00C3F101031BB2F3
:103580000028109E0493C0F2938089B292B24FF04B
:10359000000A01910292CDF80CA01FFA80F8286869
:1035A000019A029903681FFA8AF401EB0409A2EB5D
:1035B000080B1FFA8BFB1FFA89F99F684A46594688
:1035C0003346B8472868029903680F1BBFB25946B3
:1035D0003A46D3F808B03346D8472868019A0368BA
:1035E00008EB020B1FFA8BFB4A465946D3F80890AA
:1035F0003346C847286803683A4659469F683346A9
:10360000B84728680299019A0368A2EB040B08EBFB
:1036100001071FFA8BFBBFB2D3F808903A46594610
:103620003346C847286802990368A1EB08091FFAC6
:1036300089F959464A46D3F808B03346D84728682E
:10364000019A036802EB040B1FFA8BFB3A465946BA
:103650009F683346B847286803684A469F685946BA
:103660003346B847039B049A03EB440423B2039305
:1036700002EB430390B2A4B2002B08F1FF3100F13A
:10368000020204440AF1010A0CDD09B20FFA8AF3BE
:1036900020B212B28B4205910390049208DC1FFA0B
:1036A00081F87CE7059A0FFA8AF39A42BFF677AF62
:1036B00007B0BDE8F08F00BF38B50B680160044665
:1036C0001B68084698472368A0801A681846536804
:1036D0009847A288E080053A12B20023A284A28310
:1036E0006FF07F42411FC4E90F2340F20110C4E98B
:1036F000043309B24FF00415208705486064256241
:10370000E184E1832363A36184F84830204638BD17
:10371000EF8B5E0000B551EA020E05D4002B03DDED
:103720005DF804EBFFF722BF5DF804FB2DE9F04FD5
:1037300087B01746BDF94060DDF84480B24281464B
:103740000D4600F0A880994200F0B88094B200685D
:1037500089B2361B32B25B1A066805911BB282EA47
:10376000E27CACEBE27CD6F808B083EAE376002B8F
:10377000A6EBE3764FF6FF7E1FFA8CF30493D4BFDB
:1037800073460123002A01930FFA86FAD4BF7346C9
:103790000123B6B2039602930FFA8CF643462246F3
:1037A000D847B245059935DBBAF1000F59DD019BC9
:1037B000002619448CB24FEA6A0505960CE0D9F848
:1037C0000000D0F800C0DCF808B0D847019B1C44CA
:1037D00033B29A45A4B244DD029B039E03EB070C6F
:1037E000049B581905B280B2801B059EAA4506F1BC
:1037F000010621464346BAB20596E0DC05B2D9F887
:10380000000003681FFA8CF2D3F808B00FFA8CF7A7
:103810004346DAE72EB3029B05961C44A4B2771008
:103820004FF0000A019B049E03EB050C039BD81983
:1038300007B280B2801B059EBE4222464346A9B213
:103840000AF1010A10DDD9F80000D0F800C0DCF858
:1038500008B0D847029B1C440FFA8AF39E42A4B2D8
:10386000E0DC07B0BDE8F08F07B2D9F800000368CC
:103870001FFA8CF1D3F808B043460FFA8CF5D847FD
:10388000029B059A1C440FFA8AF39A42A4B2C9DC3F
:1038900007B0BDE8F08F99420DDCD9F8000004684C
:1038A000CDF84080E4689BB2BAB2A9B2A44607B092
:1038B000BDE8F04F60471D460B46EEE7B24201DD22
:1038C00037461646D9F800000468CDF840802469D0
:1038D000B3B2BAB2A9B2A44607B0BDE8F04F604790
:1038E0002DE9F04F8BB09A46149D079151EA0203DF
:1038F000CDE9045079D4BAF1000F76DD4FEA4A08D9
:10390000CDE9082AC8F1030800278DB20FFA88F81C
:103910005646BB461FFA82F90395039BB5B2BCB26B
:10392000A9EB050A1B1B4D44002E1BB20FFA8AFAA5
:103930002DB212DD049A05981946CDE9005252467F
:10394000FFF7F4FE049B0193039B05980095234425
:103950001BB252461946FFF7E9FE039B1FFA86FA8F
:10396000A3EB0A03A9EB040209EB0405BBF1000F6A
:103970001BB212B22DB214DD0499DDF814B0069218
:10398000CDE9005158461946FFF7D0FE039B049934
:10399000019153441BB2069A009519465846FFF709
:1039A000C5FEB3B2E01A08F10A0208F10601B8F147
:1039B000000F03F1FF3302EB800201EB840117DB00
:1039C00001371EB20FFA87FBB3450FFA82F8A4DD68
:1039D000DDE9084A049B079905981493224653464B
:1039E0000BB0BDE8F04FFFF7C1BD0BB0BDE8F08FE5
:1039F00001370FFA87FBB3450FFA81F88DDDE7E752
:103A00004B681A68002A00F061812DE9F04F0D68BB
:103A100093B08B46002D00F0CD80B1F90E20824688
:103A2000B1F90A00B3F90610141A8C42C0F2C28030
:103A30002F78002F00F04D812E463C464FF0010EAE
:103A40000A2C16F8014F04BF0EF1010E1FFA8EFE6C
:103A5000002CF5D19BF81840BBF91C6014F030081D
:103A600040F09480424680B2C64614F0100F0E44D7
:103A700018BFCEF34F02B3F904E0B3B210440C9375
:103A8000BBF80C20BBF908300A939EB20132921B9E
:103A900093B20D93BBF81A30099304F001031FFA97
:103AA00080FCCEF3CC02CEF302000B935B460028E1
:103AB00018BF0132D3461FFA8EF09A46002F00F04D
:103AC0000B81A9463B464FF0000807E019F8013F7B
:103AD0001FFA8EFE002B00F0F080F0460A2B08F152
:103AE000010EF3D110FB08FE08F1FF381FFA8EFE1D
:103AF0001FFA88F80D9BA3EB0E0E099B13FB08F829
:103B0000AEEB080E0FFA8EF8B8F1000F1FFA8EFE1A
:103B100050DB0B9B002B40F0CD80A30755BFB64474
:103B200006EB68090FFA8EF90FFA89F90A2F00F0EF
:103B3000CE80099B0E9600EB0308CDE905C03B46FD
:103B400048469146B3B3A3F18402382A36D8DFE859
:103B500002F08A3535353535353535353535353538
:103B600035353535B935353535358835353535352E
:103B70003535863535353535353535353535843555
:103B800035353534BB3535353535820080B20132B7
:103B900011FB0EF8121A0EF1FF3E1EFB06FEA2EB01
:103BA0000802A2EB0E020FFA82FEBEF1000F92B2E3
:103BB000BFF65BAF13B0BDE8F08FE62301FB03F364
:103BC000002909FB03F380B261DDB9F1000F5ED07B
:103BD00003EB0906DAF804300F941A6807913244AF
:103BE0001095002613460890CDF84480059A069D4E
:103BF000089CCDF80C909719A3EB0902BFB291462F
:103C00000496029319F8016B8DB304F108081FFAAA
:103C100088F8CDF804900FE0D0F800C0DAF8103042
:103C2000DCF80890C8470134A4B2013D4445ADB268
:103C30004FEA560619D0C5B116F0010FDBF80000A7
:103C40003A462146E8D10268DAF81430D2F80890F2
:103C50003A46C847E7E78123B0E7F823AEE7842375
:103C6000ACE79A23AAE78E23A8E7DDF80490029B2D
:103C70009945C7D1DDE90396079A013696424B4430
:103C8000B4D10F9C109D0898DDF84480114615F8BA
:103C9000013F40440A2B00B27FF454AFDDE905C078
:103CA0000E9E4A462F460C9B7F789C4401351FFA96
:103CB0008CFC03E7DDF8289038E710FB0EFE1FFAB6
:103CC0008EFE17E7992379E7942377E770472F460D
:103CD000E9E74FF0010EBDE64FF6FF78BE4609E773
:103CE0002DE9F0410B78B0F90A50B0F90C60047A74
:103CF000002B3CD04FEA431E4FF0000C04E00CF1C7
:103D0000200CE645587032D04B6813F80C20634401
:103D100002F04B020A2A5878F1D154B36A1C28D019
:103D200010F04008B3F9087004BF00F0670040F0DD
:103D30000500AF4200F0DF0212DCB3F90C70AF42B5
:103D40000EDBB3F90A70B7420ADCB3F90E70B74262
:103D500006DBB8F1000F24D100F0DB0242F02202B2
:103D60000CF1200C42F04000E6455870CCD1BDE883
:103D7000F081470600F04002C1D5870606D440F026
:103D8000100040F0010000F0B900B8E7870744BF19
:103D900040F0800000F0400240F00800002AF2D01D
:103DA000EFE742F02002DBE70B7863B32DE9F04741
:103DB0000F4681464FEA4318002501E0A84520D070
:103DC0007C68665D2C4406F00303022B94F801A086
:103DD00005F12005F2D116F0200F2246394648465B
:103DE00001D0636898473207E8D53306E6D51AF064
:103DF000410F2246E2D06368394648469847A845B5
:103E0000DED1BDE8F08770472DE9F04F89B09846C4
:103E10009BB2139D0393013BBDF948B000921EB2C3
:103E200004962B6801931FFA8BF7049B04468A467D
:103E3000914696B2FFF77AFC0697013F3FB205968E
:103E40000097013636B26B680193324653465146AD
:103E50002046FFF76BFCCDF800B0AB6801931FFA6A
:103E60008AF05A464346514607902046FFF75EFCCB
:103E70000097EB6801934A46434641462046FFF7C8
:103E800055FC079A0096511C039A2B690193A2F1E5
:103E9000020A0FFA81FB0FFA8AFA53463246594654
:103EA0002046FFF743FC06980599A0F102090FFA96
:103EB00089F9CDF8009001F102080FFA88F86B69D2
:103EC000019342465B4659462046FFF72FFC594670
:103ED0000097DDF810B0AB6901933A465B46204687
:103EE000FFF724FCCDF80090EB69019332465B4666
:103EF00059462046FFF71AFC079A039BCDF800802D
:103F000002F1020B0FFA8BFB2A6A0192033B424635
:103F1000594620461BB2FFF709FC06980599C61EB4
:103F200036B200966B6A0193CA1C5B46594620461E
:103F300012B2FFF7FBFBCDF80090AB6A0193594634
:103F40004A4653462046FFF7F1FBEB6A4246CDE96D
:103F5000126351465346204609B0BDE8F04FFFF7C3
:103F6000E5BB00BF2DE9F04700238AB0CDE904335B
:103F70005378D6690546D807144640F1D4801A060E
:103F800000F1DA809F0740F1C880337843F00103E5
:103F900033702378627843F0200322F0010223700B
:103FA00062701F0740F1CF80580603D433789A0718
:103FB00040F19C80002900F030810B7A13F002035D
:103FC00000F02981087FB1F91420B1F91630C70734
:103FD00000F1E3809BB292B2800704D591F83C00D7
:103FE000013003449BB2A78A208AB4F812C010445F
:103FF0003A44E78A9C443B441FB20FFA82FE80B2E7
:104000001FFA8CFC2081A4F80AC0A4F80CE0E78118
:10401000B1F91A80B84592B29BB240F38A80B1F9E7
:104020001810714540F38580717896F80090D6F8A5
:1040300008E0D6F80480CDF81CE011F0010F14BFA1
:104040000327012719F0010FCDF8188006D011F0D1
:10405000020F00F0D680CDE906E8C646D21B3844F0
:1040600081B2A3EB070800B213B29842894693B21B
:10407000BC441FFA8CF2C8BF19460FFA8CFCC8BFAB
:104080004B460FFA88F9CC4528681FFA88FC904601
:10409000C4BF6246C446D0F80080CDE900CED8F84F
:1040A0001880C0472389726903923B44ADF81030F1
:1040B00063893B44ADF81230A389DB1BADF81430A3
:1040C000E389DB1BADF81630B369029312224FF07F
:1040D000021302A92846CDF822308DF82020FFF7E0
:1040E0008FFC237823F04003237033787278D20753
:1040F00058D513F0010F4A4B4A4AB4F90E1018BFB5
:104100001A46B4F90C30CDE900122846B4F90A2059
:10411000B4F90810FFF778FE30E03278D00738D4D1
:1041200023F001036370237803F02002002A7FF458
:1041300038AF0AB0BDE8F087227842F02002227042
:104140000122A2761EE7B4F908C0B4F90C30B4F924
:104150000A200F69B4F90E609C4502DD61469C4659
:104160000B46B24211DC2868B6B20568CDE900679B
:104170009BB2AD6992B21FFA8CF1A847237823F065
:10418000200323700AB0BDE8F087114632460E4680
:10419000E9E722F001023270FBE60332033392B208
:1041A0009BB219E713F0010FD6E90373B4F90A8043
:1041B000B4F908A018BF1F46CDE90087B4F90C90E8
:1041C000B4F90E604B46424651462846FFF7AEFA18
:1041D0004B46324651462846CDE90067FFF7A6FA1E
:1041E0005346514642462846CDE90067FFF79EFAFE
:1041F000CDE900674B46424649462846FFF796FA06
:10420000BCE749077FF52AAFD6F810E0F168CDF892
:104210001CE0069122E71A46E5E60B460A46E2E66E
:10422000F8EE0000C8EE0000002939D0002A37D08F
:10423000002B35D030B5944602EB43154FF0030EFA
:1042400000248CF800E0CCF81C400CF1200CAC45AC
:10425000F7D10B7002230B72134B4A60C1E9034381
:104260004C618388013B0B83C38881F81CE0013BD0
:1042700040F202204B83039B08850B640B481123FB
:104280006FF07F42C1E9084481F82A30FF240F23F0
:10429000C1E90D20C1E90B2481F83C30002030BD7C
:1042A0004FF0FF30704700BFF0F0F00080808000DA
:1042B000024641B10B7A23F0400343F028030B720E
:1042C0000020116170474FF0FF3070472DE9F04F2B
:1042D00083B04FF0000EBDF930C08588C688F24625
:1042E0000746BDF934006CF30F0A62F30F0E63F357
:1042F0001F4E60F31F4A002900F094800C46097A93
:1043000011F0020F00F08E8052EA030B00F18A8058
:10431000013D1FFA85F82DB26545C0F28380013E4C
:104320001FFA86F936B286427CDBACEB020C0FFA40
:104330008CFCBCF1090F75DD80B29AB2A0EB020CC7
:104340000FFA8CFCBCF1090F6CDD0907C4F814E00E
:10435000C4F818A002D57969A14203D0002003B0A7
:10436000BDE8F08F93B13868796C0368013A92B276
:10437000CDE90021002D4FF00002D3F818A0B5BF01
:104380004146434600231146D047608B013003B2BB
:104390009E4282B20CDB796C38680368CDE90091EB
:1043A000002D9E69B5BF4146434600230021B0471A
:1043B000B4F91410C1B10139B4F91620B4F91A00D6
:1043C000D7F844C08BB209044ABF19460021002324
:1043D00082422EDC86B23868D0F800E0CDE9006C6D
:1043E00092B2DEF81860B047218B01310BB29D42CA
:1043F00089B210DBB4F91620B4F91A30D7F844C0EA
:104400009A4212DC38689DB20668CDE9005C4346EA
:10441000B56992B2A847237A23F0400343F0200302
:1044200023729BE74FF0FF3099E710461A46034688
:10443000E8E7164602463046CCE700BF41B10B7AAA
:10444000980705D543F020030A610B7200207047DE
:104450004FF0FF30704700BF41B10B7A980705D588
:1044600043F06003CA620B72002070474FF0FF30C8
:10447000704700BF41B10B7A980705D543F0600340
:104480000A630B72002070474FF0FF30704700BF87
:1044900041B10B7A980705D543F060030A620B72AD
:1044A000002070474FF0FF30704700BFB9B10B7A62
:1044B000980714D543F0600008724A62B2F90620EA
:1044C00091F83CC0501C844507DC23F040030232C5
:1044D00043F0200381F83C200B72002070474FF01E
:1044E000FF30704759B10B7A980708D523F0400385
:1044F00043F0200381F83C200B72002070474FF0FE
:10450000FF30704729B10B7A9B0702D5B1F914002F
:1045100070474FF0FF30704729B10B7A9B0702D5E7
:10452000B1F9160070474FF0FF30704729B10B7A90
:104530009B0702D5B1F9180070474FF0FF30704764
:1045400029B10B7A9B0702D5B1F91A0070474FF0D9
:10455000FF3070472DE9F04F00238BB0CDE90433D5
:10456000002979D00B7A9A070C4675D50B7FB1F9E3
:104570001480B1F91690B1F91870DB0706465BD4C8
:104580001FFA89F51FFA88FABBB27269D6F800B033
:10459000A2420CBFD4E90B20D4E90D20CDE90620BE
:1045A00094F83C20DBF800E0013A2A441FFA82FC30
:1045B000B84512B2CABF1946514653464A45BCBF18
:1045C0006246AC46CDE900C0A8BF2A465846DEF890
:1045D00018B0D84794F83C30ADF81290013B2B440A
:1045E000ADF81630636A0393236A029394F82A3075
:1045F0008DF8203094F92830ADF8223002A994F9D2
:104600002930ADF8243030460AF1030AADF810A085
:10461000ADF81470FFF7F4F994F83C2010492A44DF
:1046200012B2CDE9002130463B464146FFF77EF805
:1046300000200BB0BDE8F08F08F1030809F1030971
:10464000033F1FFA88FA1FFA89F5BBB20FFA88F800
:104650000FFA89F93FB298E74FF0FF30E9E700BF62
:10466000A0A0A0002DE9F0470B7AB1F91460B1F9D0
:104670001690B1F918800C461A0723F02001B4F9FE
:104680001A50217282B007464ED5227FD10731D40D
:104690001FFA89FA910761D44645D4F810C002DDAB
:1046A000334646469846A9453868CABFAAB2ADB255
:1046B0005546B1B20668CDE9005CD8BF5246B5692F
:1046C0001FFA88F3A84725788DB16D010023626831
:1046D000D15C01F0030002281A4403F1200304D145
:1046E000080744BF41F0600111709D42EFD102B054
:1046F000BDE8F0875B06CBD4234B00954A46019377
:104700003146434609F103090336A8F10308033D86
:10471000FFF77AFB1FFA89FA227F36B20FFA88F880
:104720002DB20FFA89F9B5E74645CABF4146314671
:10473000B046AE42D0F844C002DD33462E461D4698
:104740003868ADB20468CDE9005C1FFA88F3A4694B
:10475000B2B289B2A04702B0BDE8F0872146384620
:10476000FFF7F8FE237A94F83C905A0607D409F133
:104770000109D1441FFA89FA0FFA89F98CE723F06D
:1047800040032372B3E700BF28EF00002DE9F04398
:1047900090F84830DD0783B0044605D590F84830DE
:1047A00003F0FE0380F84830D4E90435AB4223D04F
:1047B00013B3C4E905352A7F900713D52A7A110768
:1047C00010D5B5F91410B3F91420914205D1B5F9FB
:1047D0001810B3F91820914250D029462046FFF70F
:1047E000B9FE63691A7A22F040021A726269137A7A
:1047F00043F028031372656925B12B7A9A0635D4E4
:104800001B0702D403B0BDE8F08320462946FFF71A
:1048100067FADFF884902046FFF7C6FA00240223E7
:10482000C9F8044089F800302B78002BEAD04FEA11
:10483000431801AE274601E04445E3D06B681A19DE
:1048400001921B5D03F00303022B04F12004F3D15A
:10485000937E002BF0D0138BA9F80130C9F80460C7
:104860002B6C48469847019B9F76E5E729462046F2
:10487000FFF7F8FE2B7A1B07C4D5C6E7B5F916106B
:10488000B3F916209142A8D1B5F91A10B3F91A203C
:104890009142A2D1A6E700BFA0060020002939D08E
:1048A000F0B50B7A1D0783B00C4630D523F0080312
:1048B000B1F914102372B4F91830B4F91620B4F910
:1048C0001AC0D0F844E09942064602DD084619466F
:1048D0000346624502DD10466246844630681FFA90
:1048E0008CF50768CDE9005E9BB2BD6992B289B2D2
:1048F000A8477369A3420AD01A7A110707D522F094
:1049000040021A727269137A43F020031372002076
:1049100003B0F0BD4FF0FF30704700BF00296CD0EE
:10492000F0B543698B4283B005460C4632D00B7A12
:10493000180758D523F00803B1F914102372B4F9FD
:104940001830B4F91620B4F91A00D5F844C09942C9
:1049500002DD0E4619463346824202DD1646024605
:10496000304686B228680768CDE9006C9BB2BE6904
:1049700092B289B2B0476B699C4234D01A7A11075F
:1049800031D522F040021A726A69137A43F020038B
:10499000137228E08369EBB11A7A16071AD5B3F9B6
:1049A0001410B4F9142091420BDCB3F91610B4F9C9
:1049B0001620914205DCB3F91810B4F91820914281
:1049C00014DA21462846FFF769FFAB692B61002006
:1049D00003B0F0BD237A23F0080323726A69137AC7
:1049E00043F020031372002003B0F0BDB3F91A1096
:1049F000B4F91A209142E9DAE3E74FF0FF3070474B
:104A00002DE9F0410878BDF91870BDF91C60BDF9B9
:104A10002050BDF92440D1F804C0002841D0984668
:104A20000CEB401E03E00CF1200CF44539D09CF84F
:104A3000000000F003000328F5D1002010700B697E
:104A40009360CB6853600B691361C968D160DFF86C
:104A500060E0506101215170C2F818E08CF8181024
:104A60004FF0FF31CCE902119CF80010ACF8107047
:104A700021F0010363F035038CF800300B4BACF8E8
:104A80001260ACF814508CF801008CF81A00ACF8E5
:104A900016408CF81980CCF81C20CCF80430BDE806
:104AA000F0814FF0FF30BDE8F08100BF653F0000AE
:104AB000C4EE000008784968C0B101EB401C02E078
:104AC0002031614512D0087800F003000228F7D1A8
:104AD000087E0128F4D1487E9042F1D1CA699360E2
:104AE0000B7843F0600300200B7070474FF0FF30ED
:104AF000704700BF08784968C0B101EB401C02E074
:104B00002031614512D0087800F003000228F7D167
:104B1000087E0128F4D1487E9042F1D1CA699361A0
:104B20000B7843F0600300200B7070474FF0FF30AC
:104B3000704700BF08784968C0B101EB401C02E033
:104B40002031614512D0087800F003000228F7D127
:104B5000087E0128F4D1487E9042F1D1CA695361A0
:104B60000B7843F0600300200B7070474FF0FF306C
:104B7000704700BF0B460146184600F0F1B800F040
:104B800015B800F013B8012838BF012010B504464D
:104B9000204600F02FF800B110BD00F009F808B968
:104BA00000F00EF88047F3E7FFF7EDBF00F02AB8FA
:104BB000024B1868BFF35B8F704700BFD40500201D
:104BC00008B5062000F0BAFB012001F05BFE0000F2
:104BD00008B5064B044613B10021AFF30080044B27
:104BE0001B6803B19847204601F04CFE000000000E
:104BF000E8070020024B0146186800F02DB800BFFE
:104C000048000020024B0146186800F037BC00BF86
:104C10004800002070B50F4E0C463168054611B9AA
:104C200000F0DCFB30602146284600F0D7FB431C37
:104C300003D14FF0FF34204670BDC41C24F00304A0
:104C4000A042F8D0211A284600F0C8FB0130F2D16A
:104C5000EFE700BFAC0600202DE9F041CD1C25F0A8
:104C6000030508350C2D38BF0C25002D064601DB49
:104C7000A94204D90C2333600020BDE8F081314FF4
:104C800000F062F83B681C4644BB29463046FFF7FB
:104C9000C1FF431C044650D13C682146002941D144
:104CA000002C44D02368304604EB030800F096FB48
:104CB00080453CD121686D1A29463046FFF7AAFF8E
:104CC000013034D023682B4423603B68002B36D05E
:104CD0005A68A24229D100225A600EE02268521B73
:104CE0001DD40B2A16D96119A342256018BF59603B
:104CF000636808BF396062514B60304600F02AF8A3
:104D000004F10B00231D20F00700C21AB5D01B1AB6
:104D1000A350B2E7A3426268DED13A60EDE72346D2
:104D20006468B1E70C464968B8E71346CEE70C2340
:104D30003360304600F00EF89EE70560DDE75B600B
:104D4000FFDE00BFA8060020014800F094BB00BFB2
:104D50000C080020014800F08FBB00BF0C080020A9
:104D600010B504460448134620B10A4602202146E5
:104D7000AFF3008010BD00BF00000000B1F90C20AF
:104D80002DE9F041170705460C4656D44B68002B19
:104D900002DC0B6C002B3DDDE66A002E3AD00023CE
:104DA00012F480522F68216A2B6025D0626DA3898E
:104DB000580705D56368D21A636B0BB1236CD21AFE
:104DC000216AE66A00232846B047411C24D000230C
:104DD000636023692360A389DA0400D56065616B91
:104DE0002F60B9B104F14403994202D0284600F083
:104DF00045FB002363630DE001232846B047461CB2
:104E00000246D4D12B68002BD1D01D2B01D0162BFC
:104E10002BD12F6000202FE02A68B4F90C3042B16A
:104E20001D2A01D0162A22D1002363602369236042
:104E3000D5E7626022692260CEE70F69002FE9D0D2
:104E400093070E6808BF4B690F6018BF0023A6EBDD
:104E500007088B60B8F1000FDCDD216AA66A4346C3
:104E60003A462846B047002808DCB4F90C3043F035
:104E70004003A3814FF0FF30BDE8F0810744A8EB69
:104E80000008E7E738B50B6905460C4613B900255D
:104E9000284638BD18B1036A0BB900F0BBF8B4F965
:104EA0000C30002BF3D0626ED00704D4990502D4E5
:104EB000A06D00F0E0FA28462146FFF75FFF636E21
:104EC000DA070546E4D4A3899B05E1D4A06D00F080
:104ED000D3FADDE7014620B9044A0549054800F048
:104EE000B1B8054B1868FFF7CDBF00BF3C000020EC
:104EF000854E00004C00002048000020002310B523
:104F00000446C0E90033C0E904338360818143660D
:104F1000C2818361194608225C3000F0CCF90D4B48
:104F200063620D4BA3620D4BE3620D4B23630D4B8C
:104F300024629C4206D003F16802944202D0D0332E
:104F40009C4205D104F15800BDE8104000F092BA2F
:104F500010BD00BF31520000535200008B520000C0
:104F6000AF520000B0060020024A0349034800F097
:104F700069B800BF3C000020854E00004C000020B6
:104F800041680C4B994210B5044601D0FFF77AFFF7
:104F9000A168094B994202D02046FFF773FFE168F0
:104FA000064B994204D02046BDE81040FFF76ABF87
:104FB00010BD00BFB00600201807002080070020A9
:104FC00010B50B4B0B4C0C4A1A60204600220421F2
:104FD000FFF794FF04F1680001220921FFF78EFF1B
:104FE00004F1D0000222BDE810401221FFF786BF75
:104FF000E8070020B0060020694F0000014800F0DB
:105000003ABA00BF0D080020014800F035BA00BFD1
:105010000D08002010B50446FFF7F0FF236A1BB10E
:10502000BDE81040FFF7F0BF044B2362044B1B6840
:10503000002BF5D1FFF7C4FFF2E700BF814F00005E
:10504000E80700202DE9F843074688461446002665
:10505000D4E90195B9F1010905D52468002CF7D1EF
:105060003046BDE8F883AB89012B07D9B5F90E307E
:10507000013303D029463846C04706436835E9E77F
:105080000FB407B5064904AB086853F8042B8168D0
:10509000019300F067FA03B05DF804EB04B07047C9
:1050A000480000200FB407B5064904AB086853F860
:1050B000042B4168019300F0A5FE03B05DF804EBFA
:1050C00004B07047480000202DE9F7431D46574BB8
:1050D0001F6804460E46904627B13B6A13B938460E
:1050E000FFF798FFB8F1020F06D0B8F1010F00F2F8
:1050F0009A80002DC0F29780636ED90705D4A389EA
:105100009A0502D4A06D00F0B6F921463846FFF7A3
:10511000B9FE616B41B104F14403994202D03846B3
:1051200000F0ACF9002363630023A3616360A389EB
:105130001B0603D52169384600F0A0F9A38923F4A2
:105140004A6323F00303B8F1020FA38161D001ABDE
:105150006A462146384600F0C3FFA3891843A08160
:105160002DBB009D2846FFF745FD0646002852D17D
:10517000DDF80090A94540D14FF0FF35B4F90C306F
:1051800043F00202A2810022A26004F147022260E1
:10519000226101226261626ED60704D4980502D4AE
:1051A000A06D00F069F9284603B0BDE8F083002E39
:1051B000D8D03B6A13B93846FFF72CFFB8F1010F7E
:1051C00008BFA389266004BF43F00103A381B4F99B
:1051D0000C3013F00802C4E904651ED0D90741BFA2
:1051E00000226D42A260A56158BFA560626ED20721
:1051F00001D49B0513D50025D5E74846FFF7FAFCF7
:1052000006460028B8D0A38943F08003A3814D4609
:10521000CFE70025B2E7A946F5E7A260E6E7A06D73
:1052200000F02AF9E7E74FF0FF35BCE7480000201F
:1052300010B50C46B1F90E1000F0AAF80028ABBF6B
:10524000636DA3891B1823F48053ACBF6365A381EE
:1052500010BD2DE9F0411F468B89DB0505460C4644
:10526000164605D5B1F90E100223002200F07EF893
:10527000A389B4F90E1023F48053A38132463B4630
:105280002846BDE8F04100F0B9B810B50C46B1F9B8
:105290000E1000F06BF8431CA38915BF606523F462
:1052A000805343F48053A38118BFA38110BDB1F98B
:1052B0000E1000F04BB802440346934200D17047F1
:1052C00003F8011BF9E710B50139034632B111F8B3
:1052D000014F03F8014B013A002CF7D11A44002189
:1052E000934200D110BD03F8011BF9E71F2938B51F
:1052F00005460C4604D9162303604FF0FF3038BD35
:10530000C26B12B152F821304BB9284600F064F854
:10531000224601462846BDE8384000F04BB8012B34
:105320000AD0591C03D1162303600120E7E70021AE
:1053300042F82410204698470020E0E7024B01463F
:105340001868FFF7D3BF00BF4800002038B5064DEE
:105350000023044608462B60FDF7BEFE431C02D125
:105360002B6803B1236038BDEC07002038B5074D2A
:1053700004460846114600222A601A46FDF7D0FE70
:10538000431C02D12B6803B1236038BDEC07002019
:1053900038B5074D04460846114600222A601A46D1
:1053A000FDF7DEFD431C02D12B6803B1236038BD3D
:1053B000EC07002038B5074D002304460846114687
:1053C0002B60FDF7D3FE431C02D12B6803B1236091
:1053D00038BD00BFEC070020FDF7D0BE38B5064D44
:1053E0000023044608462B6001F03EFA431C02D11C
:1053F0002B6803B1236038BDEC07002038B5074D9A
:1054000004460846114600222A601A46FDF7E4FDCC
:10541000431C02D12B6803B1236038BDEC07002088
:10542000014B1868704700BF4800002070B50D4D53
:105430000D4C641BA4100026A64209D10B4D0C4C48
:1054400001F022FA641BA4100026A64205D170BD0B
:1054500055F8043B98470136EEE755F8043B98476A
:105460000136F2E7A0680000A0680000A068000014
:10547000C0680000704770477047000038B50546A7
:10548000002941D051F8043C0C1F002BB8BFE41890
:10549000FFF75AFC1D4A136833B96360146028464D
:1054A000BDE83840FFF756BCA34208D92068211850
:1054B0008B4201BF19685B6809182160EDE71A4645
:1054C0005B680BB1A342FAD911685018A0420BD106
:1054D00020680144501883421160E0D118685B686D
:1054E000536008441060DAE702D90C232B60D6E73A
:1054F000206821188B4204BF19685B68636004BF91
:10550000091821605460CAE738BD00BFA806002012
:105510009368013B002B10B4936008DA9469A342AE
:1055200001DB0A2903D15DF8044B00F0AFBF13681B
:10553000581C1060197008465DF8044B7047F8B5A8
:1055400006460F461446D518AC4201D1002007E0AC
:1055500014F8011B3A463046FFF7DAFF431CF3D13B
:10556000F8BD00002DE9F04F0D469DB01446984659
:10557000064618B1036A0BB9FFF74CFD6B6ED907ED
:1055800005D4AB899A0502D4A86DFFF774FFAB89E7
:105590001B0701D52B699BB92946304600F0B4FFA3
:1055A00070B16B6EDC0704D54FF0FF301DB0BDE865
:1055B000F08FAB899805F7D4A86DFFF75DFFF3E78F
:1055C0000023099320238DF82930CDF80C80302357
:1055D000DFF8AC818DF82A304FF0010923469A4656
:1055E00013F8012B0AB1252AF9D1BAEB040B0BD021
:1055F0005B46224629463046FFF7A1FF013000F006
:10560000A780099A5A4409929AF80030002B00F0BA
:105610009F8000234FF0FF32CDE905230AF1010AF4
:10562000049307938DF853301A935446052214F8C7
:10563000011B534801F084F9049AD8B9D10644BF3C
:1056400020238DF85330130744BF2B238DF853309C
:105650009AF800302A2B15D0079A544600204FF0B4
:105660000A0C214611F8013B303B092B4BD9B0B154
:10567000079214E0A0EB080309FA03F31343049321
:10568000A246D2E7039B191D1B680391002BBBBFE9
:105690005B4242F0020207930793B8BF049223785B
:1056A0002E2B0AD163782A2B32D1039B1A1D1B683B
:1056B000039243EAE37302340593DFF8D4A0217820
:1056C0000322504601F03CF938B1049BA0EB0A00DC
:1056D0004022824013430134049314F8011B2948EB
:1056E0008DF82810062201F02BF900283FD0264B18
:1056F0001BBB039B073323F0070308330393099B6A
:105700003B4409936AE70CFB02320C460120A8E7F0
:1057100000230134059319464FF00A0C204610F877
:10572000012B303A092A03D9002BC6D00591C4E7D2
:105730000CFB012104460123F0E703AB00932A464A
:10574000124B04A93046AFF300800746781CD6D12F
:105750006B6ED90705D4AB899A0502D4A86DFFF703
:105760008BFEAB895B063FF51FAF09981EE703ABC5
:1057700000932A46054B04A9304600F079F8E4E787
:1057800060F700006AF70000000000003F550000CD
:1057900066F700002DE9F047164698468A680B69BF
:1057A000DDF820909342B8BF1346336091F8432050
:1057B00007460C460AB1013333602368990642BF9D
:1057C000336802333360256815F0060506D104F10D
:1057D000190AE36832689B1AAB4226DC94F843301E
:1057E0002268003B18BF012392062BD404F1430228
:1057F00041463846C84701301ED02368226903F06D
:105800000603042B02BFE5683368ED1AA3680CBFDA
:1058100025EAE57500259342C4BF9B1AED180026C2
:105820001A34B5421AD1002008E0012352464146FD
:105830003846C847013003D14FF0FF30BDE8F0874C
:105840000135C6E7E1185A1C302081F84300224494
:1058500094F8451082F843100233C7E7012322462B
:1058600041463846C8470130E6D00136D9E7000046
:105870002DE9FF470F7E0C9E782F914680460C46FF
:105880009A4601F1430207D8622F0AD8002F00F090
:10589000DD80582F00F0C38004F1420684F8427086
:1058A0003AE0A7F16303152BF6D801A151F823F0D4
:1058B000095900001D59000099580000995800002E
:1058C00099580000995800001D590000995800008F
:1058D000995800009958000099580000335A000068
:1058E000AB590000EB59000099580000995800008E
:1058F000555A000099580000AB5900009958000013
:1059000099580000F359000033681A1D1B68326073
:1059100004F1420684F842300123A8E0316823688C
:10592000081D30601E0601D50D6803E05D06FBD53D
:10593000B1F900506168002D78DA2D20002984F833
:105940004300A1602DDA5E486D420A231646B5FB7E
:10595000F3F103FB1157C75D06F8017D2F46BB42EB
:105960000D46F4D9082B0BD12368DF0708D523692E
:1059700061689942DEBF302306F8013C06F1FF362C
:10598000921B2261CDF800A04B4603AA2146404657
:10599000FFF700FF01306FD14FF0FF3004B0BDE8DA
:1059A000F08723F004032360CDE7216833680806FD
:1059B00053F8045B02D4490648BFADB26F2F40488C
:1059C000336014BF0A230823002184F8431066685B
:1059D000A660002EBADB216821F004012160002DB1
:1059E000B4D1002EB2D11646BCE7236843F02003A1
:1059F00023603448782784F84570236831681F068F
:105A000051F8045B02D45F0648BFADB23160D907DC
:105A100044BF43F0200323601DB11023D4E728487E
:105A2000E9E7236823F020032360F6E724480A23EC
:105A3000CDE7336825686169181D30602E061B6844
:105A400001D5196002E06806FBD5198000232361A7
:105A5000164697E733681A1D32601E686268002197
:105A6000304600F06DFF08B1801B60606368236101
:105A7000002384F8433085E723693246494640468F
:105A8000D047013088D023689B0714D4E068039B7B
:105A90009842B8BF184681E701233246494640463E
:105AA000D04701303FF478AF0135E36803995B1AC2
:105AB000AB42F1DCEAE7002504F11906F5E700BF87
:105AC00071F7000082F700002DE9F0471D464B6E8C
:105AD000DF07ADF5227D06460C46914605D48B893D
